:060000000A128A110C280F
:10000800FE00030EF0000A08F1000A128A11322ECF
:100018000A128A110F280A128A111D270A128A1138
:10002800D60083132030840040300A128A11152725
:100038000A128A11FA01FB0183010A128A11A72BFD
:1000480083120313CE004530CA00622925305006BA
:1000580003192F2830283A284E08840050088313A3
:1000680080000130FF007F08CE076229CB014408D9
:1000780084000A128A110A240A128A112E3A031DD0
:10008800462847287A280130FF007F08C407CF0197
:100098006928831203134F08F2000A300A128A11E2
:1000A80082260A128A1183120313CF00440884009F
:1000B8000A128A110A240A128A11D03EFF007F0808
:1000C800CF070130FF007F08C407440884000A12E4
:1000D8008A110A240A128A110A128A1197260A1208
:1000E8008A110318782879284D287B28CF010130F8
:1000F80083120313C407FF30440784000A128A11CD
:100108000A240A128A11D000C700C8014808003A18
:1001180003198F2862294708003A03197229643A9B
:1001280003199A280D3A03199A2862294A08840063
:1001380083130008CC00840A0008CD000230FF00B9
:100148007F08CA07CD1FA928AA28B3280330FF00B3
:100158007F08CB04CC09CD09CC0A0319CD0A4F0876
:10016800031DB728B828C2284C084D04031DBD2814
:10017800BE28C2280130FF007F08CF07D001D00A6F
:100188005008C7004707013E84000A128A110A2452
:100198000A128A11C8000A128A110A240A128A113C
:1001A800C90049084D02031DDB2848084C02031802
:1001B800DE28DF28E028EA280130FF007F08D00782
:1001C80005305006031DE928EA28C4284F08C7004F
:1001D800C801C71BC8034808803A803C031DF6289D
:1001E800470850020318F928FA28FB281329831214
:1001F80003134F08C700C801C71BC8034808803A43
:10020800C90080304902031D0B2950084702031812
:100218000E290F291329831203135008CF008312C4
:1002280003134B08033903191A291B2959294E08A6
:1002380084002D30831380000130FF007F08CE0733
:1002480059290A30C0000030C1004F08C7004707CD
:10025800013E84000A128A110A240A128A11F20045
:100268000A128A110A240A128A11F3004D08F500AD
:100278004C08F4000A128A1144240A128A117308DD
:1002880083120313C3007208C2000A128A11492597
:100298000A128A11831203134008303ED0004E0818
:1002A80084005008831380002029FF30FF007F0856
:1002B800CF074F0A031D6129622925290130C40788
:1002C800FF30440784000A128A110A240A128A118C
:1002D800D0005008031D712972292A284E0884006D
:1002E8008313800108007A037B04031D7C297D2980
:1002F800CC290A128A11C6260A128A11F601F60AB0
:1003080001300A128A1112260A128A110B3083123E
:100318000313C4002E08D100D2015108C5005208A9
:10032800C60030300A128A1124200A128A1130308D
:10033800F5000030F6000A128A1161230A128A11A8
:100348000A128A11CA240A128A11F601F60A023020
:100358000A128A1112260A128A111A3083120313FA
:10036800C4002D08D100D2015108C5005208C600AA
:1003780030300A128A1124200A128A113030F5000E
:100388000030F6000A128A1161230A128A11EA293A
:1003980083120313AD010A128A11FA260A128A116E
:1003A8000A128A11C6260A128A11F601F60A0130C3
:1003B8000A128A1112260A128A112730F500803093
:1003C800F6000A128A1161230A128A110800003005
:1003D80083120313C4000030C3000030C200003091
:1003E800C10075087404730472040319FC29FD29FB
:1003F8004A2AC501C50A0D2A0130C0000310F20DB2
:10040800F30DF40DF50DC00B022A0130FF007F0833
:10041800C507F51F102A112A002A0130C000031051
:10042800C10DC20DC30DC40DC00B132A7508790286
:10043800031D282A74087802031D282A73087702E6
:10044800031D282A72087602031C2B2A2C2A3B2A11
:100458007208F6027308031C730FF7027408031C72
:10046800740FF8027508031C750FF9024114013066
:100478000310F50CF40CF30CF20CFF3E031D3C2AA0
:100488000130C502031D492A4A2A112A4408F500E9
:100498004308F4004208F3004108F20008000A1279
:1004A8008A11F1260A128A116130F2000030F30035
:1004B8000A128A11DE260A128A110030F200F300AD
:1004C8000A128A11BD250A128A117208F8000A1246
:1004D8008A11E8260A128A11033083120313C20014
:1004E8000830C1007630C000C00B782AC10B782ACA
:1004F800C20B782A00000A128A11F1260A128A1100
:100508006030F2000030F3000A128A11DE260A1267
:100518008A11831203135608C000C1014008F20073
:100528004108F3000A128A11DE260A128A110A12F9
:100538008A11E8260A128A11780883120313AD007B
:10054800033083120313C2000830C1007630C000A4
:10055800C00BAC2AC10BAC2AC20BAC2A00000800A5
:100568000A128A11F1260A128A115130F20000305B
:10057800F3000A128A11DE260A128A110030F200EC
:10058800F3000A128A11BD250A128A117208F800AE
:100598000A128A11E8260A128A11033083120313F9
:1005A800C2000830C1007630C000C00BD92AC10B88
:1005B800D92AC20BD92A00000A128A11F1260A1276
:1005C8008A115030F2000030F3000A128A11DE2638
:1005D8000A128A117B08F3007A08F2000A128A11BB
:1005E800DE260A128A110A128A11E8260A128A11CC
:1005F800780883120313AE00033083120313C2007A
:100608000830C1007630C000C00B082BC10B082B86
:10061800C20B082B0000080000300A128A110B25B3
:100628000A128A113430F700F130F600F60B1A2B53
:10063800F70B1A2B1F2B30300A128A1152260A1276
:100648008A110D30F700FB30F600F60B292BF70B5B
:10065800292B2E2B30300A128A1152260A128A119F
:100668001D30F7009130F600F60B382BF70B382BBE
:1006780030300A128A1152260A128A1138300A12A8
:100688008A1152260A128A1108300A128A11522631
:100698000A128A1101300A128A1152260A128A1184
:1006A80006300A128A1152260A128A110C300A12CE
:1006B8008A1152260A128A11080083120313C001F4
:1006C800C1018A2B40087507F8007608F70003185F
:1006D800F70AC01F702BF7037708F900790883120F
:1006E8000313FF00780884000A128A1100240A12F2
:1006F8008A110A128A116C260A128A110130831291
:100708000313C0070318C10A0030C1074008750762
:10071800F8007608F7000318F70AC01F942BF703B0
:100728007708F900790883120313FF00780884001A
:100738000A128A1100240A128A11003A031DA52BF5
:10074800A62B662B08000A128A1188240A128A111D
:10075800013083120313A6000030A7007A037B043C
:10076800031DB72BB82BC22B0A128A11B4220A1206
:100778008A110A128A1153220A128A117A087B04F2
:10078800031DC72BC82BCF2B31300A128A11EB253A
:100798000A128A11D52B33300A128A11EB250A1254
:1007A8008A11043083120313D5000C30D40033307F
:1007B800D300D30BDD2BD40BDD2BD50BDD2B0A128D
:1007C8008A1177210A128A11B22B0A128A110C286F
:10080000FF1B0A2C83137F1883170008840A03191F
:10081000FF0A080004308A000408840A82070034B2
:10082000013400340A34003464340034E8340334CE
:1008300010342734443469347334743461346E347E
:10084000633465343A34203425342E3432346434FD
:1008500000344234613473346B34653474343A3464
:10086000203425342E343234643400344F3466342A
:1008700066340034203420340034213421340034F0
:100880003034003431340034F601F7017208730457
:1008900003194B2C4C2C832CF801F80A5A2C0130EC
:1008A0000310F20DF30DFF3E031D502C0130FF002D
:1008B0007F08F807F31F5D2C5E2C4F2C01300310CE
:1008C000F60DF70DFF3E031D5F2C73087502031D27
:1008D0006B2C72087402031C6E2C6F2C762C720821
:1008E000F4027308031CF503F502761401300310BB
:1008F000F30CF20CFF3E031D772C0130F802031DB0
:10090000822C832C5E2C7708F3007608F200080016
:100910007030831603138F040F14181218158316E2
:1009200003178715CF308316031399009A01831696
:10093000031788018901803083160313870085011E
:100940000130860088018312031385018601870127
:100950008801981718131816831603139816013078
:100960000A128A11D3260A128A1100308312031345
:10097000C9000130C8008630C700A030C6000A1286
:100980008A1185250A128A110A128A1110230A1265
:100990008A1108000F30F60001300A128A1112265F
:1009A0000A128A11C930831203132D020318D92C9D
:1009B000DA2C052D0D302E020318DF2CE02CF22C42
:1009C0002E30F5008030F6000A128A1161230A12D7
:1009D0008A1183120313D6010A128A1103270A12FD
:1009E0008A110A2D2B30F5008030F6000A128A1188
:1009F00061230A128A1183120313D601D60A0A123E
:100A00008A110C270A128A110A2D0A128A11FA2653
:100A10000A128A110800F200721C0F2D102D142DDD
:100A2000831203130814172D831203130810F21CEA
:100A30001A2D1B2D1D2D88141E2D8810721D212D81
:100A4000222D242D0815252D0811F21D282D292DC4
:100A50002B2D88152C2D8811721E2F2D302D322D07
:100A60000816332D0812F21E362D372D392D881613
:100A70003A2D8812721F3D2D3E2D402D0817412D15
:100A80000813F21F442D452D472D8817482D881334
:100A9000080083120313400841040319502D512DFF
:100AA000802DF901F90A5F2D01300310C00DC10D31
:100AB000FF3E031D552D0130FF007F08F907C11FC0
:100AC000622D632D542D41084302031D692D4008FA
:100AD0004202031C6C2D6D2D732D4008C20241088B
:100AE000031CC303C30201300310C10CC00CFF3E42
:100AF000031D742D0130F902031D7F2D802D632D00
:100B00004308C1004208C0000800283083120313C4
:100B10009400831603139101831203134608CA003D
:100B20004708CB004808CC004908CD00023003102C
:100B3000CA0DCB0DCC0DCD0DFF3E031D972D4D08DD
:100B4000F5004C08F4004B08F3004A08F2000030AE
:100B5000F9007A30F8001230F7000030F6000A127F
:100B60008A11EB210A128A117208FF3E83160313C1
:100B7000930094018715071608000A128A11B926F6
:100B80000A128A118316031391150A128A11B926C3
:100B90000A128A11831203131308F400F501740872
:100BA000F6007508F7000A128A11B9260A128A118E
:100BB00072037304031DDD2DDE2DE22D8316031356
:100BC0009112E52D83160313911611167708F30081
:100BD0007608F2000800F300FD2D730884000A1265
:100BE0008A110A240A128A110A128A11A9260A12E3
:100BF0008A110130FF007F08F307730884000A128E
:100C00008A110A240A128A11003A031D082E092E9D
:100C1000ED2D831203130C1E0E2E0F2E112E0D30F0
:100C200099000800F7007703031D172E182E222EB7
:100C300076087F3EF80078080A128A1152260A12B6
:100C40008A11312E02307706031D272E282E312ED1
:100C50007608BF3EF80078080A128A1152260A1256
:100C60008A1108000B1C352E362E4B2E83120313CF
:100C7000061C3B2E3C2E4A2E7A037B04031D412E7C
:100C8000422E462EFA01FB01D6014A2E0130FA000F
:100C90000030FB000B1071088A00700E8300FE0EFE
:100CA0007E0E0900F50083120313071075080A125F
:100CB0008A110B250A128A118312031387140B3031
:100CC000F4006230F300F30B632EF40B632E00008C
:100CD0008312031387100800F40083120313071410
:100CE00074080A128A110B250A128A11831203133F
:100CF00087141A30F300F30B7B2E000083120313CA
:100D000087100800F400F301741C872E882E8C2EA7
:100D10007208FF007F08F3070310F20D0310F40CB4
:100D20007408031D942E952E842E73080800F3007A
:100D3000F2013A30730203189E2E9F2EA72E3030F8
:100D40007302031CA42EA52EA72EF201F20A720C28
:100D50000800F20083160313981CAF2EB02EAA2EA3
:100D6000831203130C1EB52EB62EB82E72089900EE
:100D70000800831603131419BE2EBF2EB92E1108B6
:100D80001F39031DC42EC52EB92E080000300A12CB
:100D90008A1152260A128A1101300A128A11522629
:100DA0000A128A1108008B170B108B158316031378
:100DB0001614961481131514951408000A128A113A
:100DC000B9260A128A1172088312031393000800CD
:100DD0000A128A11B9260A128A11831603131115F1
:100DE00008000A128A11B9260A128A1183160313FF
:100DF00011140800831203130514851005118516BC
:100E000085110512080083120313051485100515BA
:100E10008516851105160800831203130514851025
:100E20000515851685150512080064008001840AE1
:0C0E30000406031900340406162F0134D8
:08400000FF3FFF3FFF3FFF3FC0
:04400E00D420FF3F7C
:00000001FF
