:100000000A128A110C280134FE00030EF0000A08BF
:10001000F1000A128A15992F0A128A110F280A1262
:100020008A1103200A128A11D5008313203084001C
:100030003F300A128A15CE260A128A11FA01FB01F4
:1000400083010A128A11772983120313CD004430E9
:10005000C900622925304F0603192F2830283A2875
:100060004D0884004F08831380000130FF007F0893
:10007000CD076229CA01430884000A128A110E239F
:100080000A128A112E3A031D462847287A28013081
:10009000FF007F08C307CE016928831203134E08AF
:1000A000F2000A300A128A1554270A128A118312A2
:1000B0000313CE00430884000A128A110E230A1289
:1000C0008A11D03EFF007F08CE070130FF007F0875
:1000D000C307430884000A128A110E230A128A11E8
:1000E0000A128A1542270A128A11031878287928D9
:1000F0004D287B28CE01013083120313C307FF3044
:10010000430784000A128A110E230A128A11CF00B3
:10011000C600C7014708003A03198F28622946081C
:10012000003A03197229643A03199A280D3A0319FF
:100130009A2862294908840083130008CB00840AA6
:100140000008CC000230FF007F08C907CC1FA92897
:10015000AA28B3280330FF007F08CA04CB09CC09C2
:10016000CB0A0319CC0A4E08031DB728B828C228A9
:100170004B084C04031DBD28BE28C2280130FF00D7
:100180007F08CE07CF01CF0A4F08C6004607013EC1
:1001900084000A128A110E230A128A11C7000A1259
:1001A0008A110E230A128A11C80048084C02031D46
:1001B000DB2847084B020318DE28DF28E028EA285E
:1001C0000130FF007F08CF0705304F06031DE928E7
:1001D000EA28C4284E08C600C701C61BC703470843
:1001E000803A803C031DF62846084F020318F92880
:1001F000FA28FB281329831203134E08C600C701EF
:10020000C61BC7034708803AC80080304802031D58
:100210000B294F08460203180E290F2913298312B0
:1002200003134F08CE00831203134A08033903193E
:100230001A291B2959294D0884002D308313800069
:100240000130FF007F08CD0759290A30BF00003078
:10025000C0004E08C6004607013E84000A128A11FB
:100260000E230A128A11F2000A128A110E230A12B0
:100270008A11F3004C08F5004B08F4000A128A11A9
:1002800067260A128A11730883120313C2007208C8
:10029000C1000A128A112B270A128A118312031332
:1002A0003F08303ECF004D0884004F088313800084
:1002B0002029FF30FF007F08CE074E0A031D612969
:1002C000622925290130C307FF30430784000A1241
:1002D0008A110E230A128A11CF004F08031D7129BB
:1002E00072292A284D0884008313800108000A120D
:1002F0008A11AB260A128A11013083120313A60059
:100300000030A7008312031328032904031D892941
:100310008A2994290A128A111B250A128A110A12A3
:100320008A11BC240A128A118316031398160B3003
:1003300083120313AA0026032704031DA029A12961
:10034000C1294E300A128A15D9270A128A1104309F
:1003500083120313D4000C30D3003330D200D20BFD
:10036000AF29D30BAF29D40BAF298312031329086C
:10037000C0002808BF000A128A1180220A128A11BE
:10038000452A023026062704031DC729C829EB2960
:100390005C300A128A15D9270A128A110430831296
:1003A0000313D4000C30D3003330D200D20BD62943
:1003B000D30BD629D40BD629831203135508D200A8
:1003C000D3015208BF005308C0000A128A118022CC
:1003D0000A128A11452A033026062704031DF12933
:1003E000F229152A54300A128A15D9270A128A11BD
:1003F000043083120313D4000C30D3003330D20006
:10040000D20B002AD30B002AD40B002A7A088312BD
:100410000313D200D3015208BF005308C0000A12D0
:100420008A1180220A128A11452A043026062704DE
:10043000031D1B2A1C2A3F2A3A300A128A15D92783
:100440000A128A11043083120313D4000C30D30033
:100450003330D200D20B2A2AD30B2A2AD40B2A2AD1
:100460007B0883120313D200D3015208BF00530844
:10047000C0000A128A1180220A128A11452A4530C8
:100480000A128A15D9270A128A110430831203131B
:10049000D4000C30D3003330D200D20B4D2AD30B12
:1004A0004D2AD40B4D2A831603139812043083125D
:1004B0000313D4000C30D3003330D200D20B5E2AA9
:1004C000D30B5E2AD40B5E2A013083120313A607D6
:1004D0000318A70A0030A707053026062704031DC6
:1004E000722A732A772A0130A6000030A7000A1268
:1004F0008A1179230A128A1182290A128A110C2878
:10050000831203133F084004031D872A882A8F2A79
:1005100030300A128A1532270A128A11032BC01FA3
:10052000922A932AA02A2D300A128A1532270A12FB
:100530008A1183120313BF09C009BF0A0319C00A35
:10054000CB01CC01D42A831203134B08413E840013
:100550000A30F2000030F3004008F5003F08F400D4
:100560000A128A1177250A128A117208303E831303
:100570008000013083120313CB070318CC0A00302C
:10058000CC070A30F2000030F3004008F5003F08C5
:10059000F4000A128A1155240A128A117308831270
:1005A0000313C0007208BF004008803AFF0080308B
:1005B0007F02031DDD2A01303F020318E02AE12AF1
:1005C000A32A831203134B08FF3ECD004C080318E7
:1005D000013EFF3ECE00CE1FEE2AEF2AF02A032B6B
:1005E0004D08413E8400831300080A128A15322701
:1005F0000A128A11FF3083120313CD070318CE0AA3
:10060000FF30CE07EB2A0800FF1B0E2B83137F1849
:1006100083170008840A0319FF0A080003308A00C0
:100620000408840A82070034013400340A34003498
:1006300064340034E83403341034273448346534E7
:100640006C346C346F342034663472346F346D34EF
:10065000203474346834653420345034493443349D
:100660000034443469347334743461346E34633424
:1006700065343A34203425342E3432346434003432
:100680004234613473346B34653474343A34203416
:1006900025342E3432346434003455346C3474349C
:1006A0007234613473346F346E34693463340034BB
:1006B0004E346F346E346534203434343034343452
:1006C000003450346F347734653472340034463437
:1006D0005334523400344F34663466340034463474
:1006E00061346E3400342034203400342134213419
:1006F00000348312031328032904031D802B812B4C
:10070000D02B0A128A1518270A128A11F601F60A46
:1007100001300A128A15B9270A128A111E30831273
:100720000313C3007B08D000D1015008C400510856
:10073000C5002F300A128A1124200A128A112F3084
:10074000F5000030F6000A128A1121260A128A11D9
:100750000A128A119F270A128A11F601F60A02303C
:100760000A128A15B9270A128A112D30831203132F
:10077000C3007A08D000D1015008C4005108C50058
:100780002F300A128A1124200A128A112F30F50004
:100790000030F6000A128A1121260A128A11EC2B67
:1007A000FA010A128A15D6260A128A110A128A1525
:1007B00018270A128A11F601F60A01300A128A1560
:1007C000B9270A128A115830F5008030F6000A1253
:1007D0008A1121260A128A1108000030831203139D
:1007E000C3000030C2000030C1000030C0007508F6
:1007F0007404730472040319FE2BFF2B4C2CC401E8
:10080000C40A0F2C0130BF000310F20DF30DF40DDC
:10081000F50DBF0B042C0130FF007F08C407F51F46
:10082000122C132C022C0130BF000310C00DC10D7F
:10083000C20DC30DBF0B152C75087902031D2A2CA0
:1008400074087802031D2A2C73087702031D2A2CD2
:1008500072087602031C2D2C2E2C3D2C7208F602F9
:100860007308031C730FF7027408031C740FF8025B
:100870007508031C750FF902401401300310F50CC4
:10088000F40CF30CF20CFF3E031D3E2C0130C402AD
:10089000031D4B2C4C2C132C4308F5004208F4008C
:1008A0004108F3004008F2000800F701F31F592C3B
:1008B0005A2C612CF209F309F20A0319F30AF70121
:1008C000F70AF51F642C652C6E2CF409F509F40A5F
:1008D0000319F50A0130FF007F08F706F801F90156
:1008E000720873040319752C762CAD2CF601F60AE8
:1008F000842C01300310F20DF30DFF3E031D7A2C02
:100900000130FF007F08F607F31F872C882C792C15
:1009100001300310F80DF90DFF3E031D892C7308FB
:100920007502031D952C72087402031C982C992CD7
:10093000A02C7208F4027308031CF503F502781466
:1009400001300310F30CF20CFF3E031DA12C01300B
:10095000F602031DAC2CAD2C882C77080319B12CA2
:10096000B22CB72CF809F909F80A0319F90A790821
:10097000F3007808F20008000A128A15F1260A121C
:100980008A116130F2000030F3000A128A15032741
:100990000A128A110030F200F3000A128A11D227DB
:1009A0000A128A117208F8000A128A15FA260A1227
:1009B0008A11033083120313C1000830C00076305F
:1009C000BF00BF0BE12CC00BE12CC10BE12C0000E0
:1009D0000A128A15F1260A128A116030F2000030DC
:1009E000F3000A128A1503270A128A1183120313CD
:1009F0005508BF00C0013F08F2004008F3000A128A
:100A00008A1503270A128A110A128A15FA260A126F
:100A10008A117808FA00033083120313C1000830EA
:100A2000C0007630BF00BF0B132DC00B132DC10BC0
:100A3000132D000008000A128A15F1260A128A11E5
:100A40005130F2000030F3000A128A1503270A120F
:100A50008A110030F200F3000A128A11D2270A121A
:100A60008A117208F8000A128A15FA260A128A11E7
:100A7000033083120313C1000830C0007630BF007A
:100A8000BF0B402DC00B402DC10B402D00000A12A2
:100A90008A15F1260A128A115030F2000030F30054
:100AA0000A128A1503270A128A11831203132908CE
:100AB000F3002808F2000A128A1503270A128A1185
:100AC0000A128A15FA260A128A117808FB000330E6
:100AD00083120313C1000830C0007630BF00BF0B83
:100AE0006F2DC00B6F2DC10B6F2D00000800F7019B
:100AF000F51F7B2D7C2D832DF409F509F40A0319CC
:100B0000F50AF701F70AF31F862D872D8C2DF209C0
:100B1000F309F20A0319F30A720873040319912DF9
:100B2000922DC12DF601F60AA02D01300310F20D11
:100B3000F30DFF3E031D962D0130FF007F08F607E1
:100B4000F31FA32DA42D952D73087502031DAA2D47
:100B500072087402031CAD2DAE2DB42D7208F40280
:100B60007308031CF503F50201300310F30CF20CBB
:100B7000FF3E031DB52D0130F602031DC02DC12D12
:100B8000A42D77080319C52DC62DCB2DF409F50921
:100B9000F40A0319F50A7508F3007408F200080056
:100BA00000300A128A11ED260A128A113430F70039
:100BB000F130F600F60BDA2DF70BDA2DDF2D3030A1
:100BC0000A128A157F270A128A110D30F700FB30AE
:100BD000F600F60BE92DF70BE92DEE2D30300A1259
:100BE0008A157F270A128A111D30F7009130F6000E
:100BF000F60BF82DF70BF82D30300A128A157F27E7
:100C00000A128A1138300A128A157F270A128A11AD
:100C100008300A128A157F270A128A1101300A1237
:100C20008A157F270A128A1106300A128A157F2731
:100C30000A128A110C300A128A157F270A128A11A9
:100C4000080083120313BF01C0014A2E3F08750735
:100C5000F8007608F7000318F70ABF1F302EF703D5
:100C60007708F900790883120313FF0078088400DD
:100C70000A128A1104230A128A110A128A15692794
:100C80000A128A11013083120313BF070318C00A26
:100C90000030C0073F087507F8007608F700031812
:100CA000F70ABF1F542EF7037708F900790883125B
:100CB0000313FF00780884000A128A1104230A1221
:100CC0008A11003A031D652E662E262E0800F601B5
:100CD000F7017208730403196E2E6F2EA62EF80109
:100CE000F80A7D2E01300310F20DF30DFF3E031DB7
:100CF000732E0130FF007F08F807F31F802E812E2E
:100D0000722E01300310F60DF70DFF3E031D822EEB
:100D100073087502031D8E2E72087402031C912E37
:100D2000922E992E7208F4027308031CF503F50243
:100D3000761401300310F30CF20CFF3E031D9A2EC3
:100D40000130F802031DA52EA62E812E7708F30090
:100D50007608F20008007030831603138F040F1416
:100D600018121815831603178715CF30831603132F
:100D700099009A0183160317880189018030831630
:100D80000313870085010130860088018312031355
:100D90008501860187018801981718131816831694
:100DA0000313981601300A128A150D270A128A11A8
:100DB000003083120313C8000130C7008630C6001C
:100DC000A030C5000A128A1167270A128A110A1276
:100DD0008A11D0250A128A110800F200721CF12E25
:100DE000F22EF62E831203130814F92E8312031326
:100DF0000810F21CFC2EFD2EFF2E8814002F8810E8
:100E0000721D032F042F062F0815072F0811F21D3E
:100E10000A2F0B2F0D2F88150E2F8811721E112FE0
:100E2000122F142F0816152F0812F21E182F192F23
:100E30001B2F88161C2F8812721F1F2F202F222F66
:100E40000817232F0813F21F262F272F292F881763
:100E50002A2F88130800831203133F084004031944
:100E6000322F332F622FF901F90A412F013003107D
:100E7000BF0DC00DFF3E031D372F0130FF007F085F
:100E8000F907C01F442F452F362F40084202031D8B
:100E90004B2F3F084102031C4E2F4F2F552F3F0869
:100EA000C1024008031CC203C20201300310C00C7F
:100EB000BF0CFF3E031D562F0130F902031D612FA9
:100EC000622F452F4208C0004108BF0008002830AB
:100ED00083120313940083160313910183120313E7
:100EE0004508C9004608CA004708CB004808CC009E
:100EF00002300310C90DCA0DCB0DCC0DFF3E031DF2
:100F0000792F4C08F5004B08F4004A08F300490813
:100F1000F2000030F9007A30F8001230F7000030AB
:100F2000F6000A128A11ED230A128A117208FF3E96
:100F300083160313930094018715071608000F30DA
:100F4000F60001300A128A15B9270A128A110D30EB
:100F50007B020318AC2FAD2FBF2F6330F50080301C
:100F6000F6000A128A1121260A128A11831203132B
:100F7000D5010A128A15E8260A128A11D12F60308B
:100F8000F5008030F6000A128A1121260A128A1111
:100F900083120313D501D50A0A128A15DF260A1215
:100FA0008A1108000A128A1525270A128A11831647
:100FB000031391150A128A1525270A128A11831222
:100FC00003131308F400F5017408F6007508F70020
:100FD0000A128A1525270A128A1172037304031D47
:100FE000F22FF32FF72F831603139112FA2F831684
:100FF0000313911611167708F3007608F200080023
:101D9C0064008001840A0406031900340406CF2E63
:101DAC008312031305148510051185168511051270
:101DBC000800831203130514851005158516851567
:101DCC0005120800831203130514851005158516DA
:101DDC008511051608000A128A1525270A128A157C
:101DEC0083160313111408000A128A1525270A12E8
:101DFC008A1583160313111508000A128A15252754
:101E0C000A128A15720883120313930008008B17A9
:101E1C000B108B15831603131614961481131514BB
:101E2C009514080000300A128A157F270A128A15A9
:101E3C0001300A128A157F270A128A1508008316A8
:101E4C00031314192A2F2B2F252F11081F39031DAB
:101E5C00302F312F252F0800F20083160313981C06
:101E6C00382F392F332F831203130C1E3E2F3F2F85
:101E7C00412F720899000800F300F2013A30730206
:101E8C000318492F4A2F522F30307302031C4F2F47
:101E9C00502F522FF201F20A720C0800F400F301D9
:101EAC00741C592F5A2F5E2F7208FF007F08F307FE
:101EBC000310F20D0310F40C7408031D662F672F2A
:101ECC00562F73080800F4008312031307147408C8
:101EDC000A128A11ED260A128A158312031387142B
:101EEC001A30F300F30B782F0000831203138710C2
:101EFC000800F50083120313071075080A128A11E3
:101F0C00ED260A128A158312031387140B30F40082
:101F1C006230F300F30B902FF40B902F0000831220
:101F2C000313871008000B1C9C2F9D2FB22F8312BC
:101F3C000313061CA22FA32FB12F28032904031D62
:101F4C00A82FA92FAD2FA801A901D501B12F0130C0
:101F5C00A8000030A9000B1071088A00700E8300D5
:101F6C00FE0E7E0E0900F7007703031DBE2FBF2F58
:101F7C00C92F76087F3EF80078080A128A157F2749
:101F8C000A128A15D82F02307706031DCE2FCF2FB9
:101F9C00D82F7608BF3EF80078080A128A157F27DA
:101FAC000A128A150800F300EB2F730884000A123A
:101FBC008A110E230A128A150A128A1532270A125E
:101FCC008A150130FF007F08F307730884000A129A
:101FDC008A110E230A128A15003A031DF62FF72FC9
:101FEC00DB2F831203130C1EFC2FFD2FFF2F0D3044
:041FFC009900080040
:08400000FF3FFF3FFF3FFF3FC0
:04400E00D420FF3F7C
:00000001FF
