:060000000A128A110C280F
:10000800FE00030EF0000A08F1000A128A11712E90
:100018000A128A110F28FA01FB0183132030840089
:100028003E300A128A1154270A128A1183010A12D1
:100038008A11F529453083120313CA006529253032
:100048004F060319282829283728420884008317CF
:10005800431C83134F0880000130C2070318C30AEA
:100068000030C3076529CB01440884000A128A11AD
:100078000A240A128A112E3A031D43284428772895
:100088000130FF007F08C407CE01662883120313DE
:100098004E08F2000A300A128A11C1260A128A1181
:1000A80083120313CE00440884000A128A110A241A
:1000B8000A128A11D03EFF007F08CE070130FF00E8
:1000C8007F08C407440884000A128A110A240A1205
:1000D8008A110A128A11D6260A128A11031875285B
:1000E80076284A287828CE01013083120313C407E2
:1000F800FF30440784000A128A110A240A128A115E
:10010800CF00C700C8014808003A03198C286529A0
:100118004708003A03197529643A031997280D3AD4
:100128000319972865294A08840083130008CC001E
:10013800840A0008CD000230FF007F08CA07CD1FDF
:10014800A628A728B0280330FF007F08CB04CC09D5
:10015800CD09CC0A0319CD0A4E08031DB428B528C9
:10016800BF284C084D04031DBA28BB28BF280130FE
:10017800FF007F08CE07CF01CF0A4F08C700470707
:10018800013E84000A128A110A240A128A11C80040
:100198000A128A110A240A128A11C90049084D0252
:1001A800031DD82848084C020318DB28DC28DD2862
:1001B800E7280130FF007F08CF0705304F06031DF1
:1001C800E628E728C1284E08C700C801C71BC8038E
:1001D8004808803A803C031DF32847084F0203185B
:1001E800F628F728F8281029831203134E08C700A9
:1001F800C801C71BC8034808803AC90080304902B3
:10020800031D08294F08470203180B290C29102938
:10021800831203134F08CE00831203134B080339CC
:100228000319172918295C29420884008317431CDD
:1002380083132D3080000130C2070318C30A003031
:10024800C3075C290A30BE000030BF004E08C70053
:100258004707013E84000A128A110A240A128A11E9
:10026800F2000A128A110A240A128A11F3004D08B0
:10027800F5004C08F4000A128A1193240A128A1114
:10028800730883120313C1007208C0000A128A118E
:1002980057250A128A11831203133E08303ECF00F5
:1002A800420884008317431C83134F0880001F29CA
:1002B800FF30FF007F08CE074E0A031D6429652919
:1002C80026290130C407FF30440784000A128A1126
:1002D8000A240A128A11CF004F08031D74297529B0
:1002E8002328420884008317431C831380010800D5
:1002F8008312031326032704031D83298429D9297C
:100308000A128A1105270A128A11F601F60A013023
:100318000A128A1151260A128A112E3083120313E7
:10032800C2000030C3000B30C4007B08D000D101EC
:100338005008C5005108C6000A128A111E200A1268
:100348008A112E30F5000030F6000A128A114D2469
:100358000A128A110A128A11CB250A128A11F60189
:10036800F60A02300A128A1151260A128A112E3010
:1003780083120313C2000030C3001A30C4002C08D3
:10038800D000D1015008C5005108C6000A128A11D0
:100398001E200A128A112E30F5000030F6000A12CB
:1003A8008A114D240A128A11F4290A128A114B273C
:1003B8000A128A110A128A1105270A128A11F601ED
:1003C800F60A01300A128A1151260A128A113430AB
:1003D800F5008030F6000A128A114D240A128A119B
:1003E80008000A128A11D7240A128A1183120313E9
:1003F80026032704031D012A022A0C2A0A128A113D
:1004080033230A128A110A128A11D2220A128A1175
:100418000A128A117C210A128A112E30FA007A08EF
:1004280083120313D200D3015208C2005308C30039
:100438002B30C4002708C6002608C5000A128A11F6
:100448001E200A128A117A0883120313D200D301DC
:100458005208F3005308F4000A128A112C260A12D3
:100468008A110A300A128A11E8260A128A117A08B1
:1004780083120313D200D3015208C2005308C300E9
:100488002730C4002808D400D5015408C5005508F1
:10049800C6000A128A111E200A128A117A088312CB
:1004A8000313D200D3015208F3005308F4000A12D0
:1004B8008A112C260A128A110A300A128A11E82691
:1004C8000A128A11FA290A128A110C28003083129A
:1004D8000313C2000030C1000030C0000030BF006C
:1004E800750874047304720403197B2A7C2AC92AC8
:1004F800C301C30A8C2A0130BE000310F20DF30DAC
:10050800F40DF50DBE0B812A0130FF007F08C307EB
:10051800F51F8F2A902A7F2A0130BE000310BF0DD5
:10052800C00DC10DC20DBE0B922A75087902031DBC
:10053800A72A74087802031DA72A73087702031DE7
:10054800A72A72087602031CAA2AAB2ABA2A7208BA
:10055800F6027308031C730FF7027408031C740F68
:10056800F8027508031C750FF9023F1401300310D7
:10057800F50CF40CF30CF20CFF3E031DBB2A013002
:10058800C302031DC82AC92A902A4208F500410857
:10059800F4004008F3003F08F20008000A128A112C
:1005A80030270A128A116130F2000030F3000A1273
:1005B8008A111D270A128A110030F200F3000A126C
:1005C8008A11FE250A128A117208F8000A128A1185
:1005D80027270A128A11033083120313C000083038
:1005E800BF007630BE00BE0BF72ABF0BF72AC00B40
:1005F800F72A00000A128A1130270A128A1160307D
:10060800F2000030F3000A128A111D270A128A111B
:10061800831203132808BE00BF013E08F2003F08FA
:10062800F3000A128A111D270A128A110A128A1166
:1006380027270A128A11780883120313AC000330A3
:1006480083120313C0000830BF007630BE00BE0B13
:100658002B2BBF0B2B2BC00B2B2B000008000A12D7
:100668008A1130270A128A115130F2000030F30043
:100678000A128A111D270A128A110030F200F300AB
:100688000A128A11FE250A128A117208F8000A1243
:100698008A1127270A128A11033083120313C00014
:1006A8000830BF007630BE00BE0B582BBF0B582B4E
:1006B800C00B582B00000A128A1130270A128A111F
:1006C8005030F2000030F3000A128A111D270A1276
:1006D8008A11831203132708F3002608F2000A126E
:1006E8008A111D270A128A110A128A1127270A124B
:1006F8008A117808FB00033083120313C000083006
:10070800BF007630BE00BE0B872BBF0B872BC00BFC
:10071800872B0000080000300A128A1119250A12D6
:100728008A113430F700F130F600F60B992BF70BED
:10073800992B9E2B30300A128A1191260A128A119F
:100748000D30F700FB30F600F60BA82BF70BA82BA3
:10075800AD2B30300A128A1191260A128A111D30E7
:10076800F7009130F600F60BB72BF70BB72B3030AC
:100778000A128A1191260A128A1138300A128A112D
:1007880091260A128A1108300A128A1191260A1231
:100798008A1101300A128A1191260A128A1106302A
:1007A8000A128A1191260A128A110C300A128A1129
:0807B80091260A128A110800C3
:10080000FF1B0A2C83137F1883170008840A03191F
:10081000FF0A080004308A000408840A82070034B2
:10082000013400340A34003464340034E8340334CE
:1008300010342734443469347334743461346E347E
:10084000633465343A34203425342E3432346434FD
:1008500000344234613473346B34653474343A3464
:10086000203425342E343234643400344634613438
:100870006E343A34253464340034483465346C348E
:100880006C346F3400344F346634663400342034B2
:100890002034003421342134003483120313BE0188
:1008A000BF01762C3E087507F8007608F70003189C
:1008B000F70ABE1F5C2CF7037708F900790883124A
:1008C0000313FF00780884000A128A1100240A1218
:1008D0008A110A128A11AB260A128A110130831278
:1008E0000313BE070318BF0A0030BF073E08750791
:1008F000F8007608F7000318F70ABE1F802CF703EC
:100900007708F900790883120313FF007808840040
:100910000A128A1100240A128A11003A031D912C2E
:10092000922C522C0800F601F70172087304031987
:100930009A2C9B2CD22CF801F80AA92C0130031018
:10094000F20DF30DFF3E031D9F2C0130FF007F08C9
:10095000F807F31FAC2CAD2C9E2C01300310F60DC4
:10096000F70DFF3E031DAE2C73087502031DBA2C54
:1009700072087402031CBD2CBE2CC52C7208F40234
:100980007308031CF503F502761401300310F30C11
:10099000F20CFF3E031DC62C0130F802031DD12CC2
:1009A000D22CAD2C7708F3007608F20008007030E6
:1009B000831603138F040F141812181583160317C8
:1009C0008715CF308316031399009A0183160317F6
:1009D0008801890180308316031387008501013067
:1009E000860088018312031385018601870188012F
:1009F00098171813181683160313981601300A1245
:100A00008A1112270A128A11003083120313C700B9
:100A10000130C6008630C500A030C4000A128A1119
:100A200093250A128A110A128A118F230A128A1137
:100A30000800F200721C1D2D1E2D222D831203139F
:100A40000814252D831203130810F21C282D292DBC
:100A50002B2D88142C2D8810721D2F2D302D322D0A
:100A60000815332D0811F21D362D372D392D881517
:100A70003A2D8811721E3D2D3E2D402D0816412D18
:100A80000812F21E442D452D472D8816482D881238
:100A9000721F4B2D4C2D4E2D08174F2D0813F21F92
:100AA000522D532D552D8817562D8813080083126B
:100AB00003133E083F0403195E2D5F2D8E2DF901AF
:100AC000F90A6D2D01300310BE0DBF0DFF3E031D51
:100AD000632D0130FF007F08F907BF1F702D712DB6
:100AE000622D3F084102031D772D3E084002031C82
:100AF0007A2D7B2D812D3E08C0023F08031CC103C7
:100B0000C10201300310BF0CBE0CFF3E031D822D3D
:100B10000130F902031D8D2D8E2D712D4108BF006E
:100B20004008BE0008002830831203139400831687
:100B300003139101831203134408C8004508C90038
:100B40004608CA004708CB0002300310C80DC90D83
:100B5000CA0DCB0DFF3E031DA52D4B08F5004A081D
:100B6000F4004908F3004808F2000030F9007A3038
:100B7000F8001230F7000030F6000A128A116A22DB
:100B80000A128A117208FF3E831603139300940120
:100B90008715071608000F30F60001300A128A1177
:100BA00051260A128A1108307B020318D82DD92D3C
:100BB000EB2D3B30F5008030F6000A128A114D24EF
:100BC0000A128A1183120313A8010A128A11392703
:100BD0000A128A11FD2D3830F5008030F6000A1215
:100BE0008A114D240A128A1183120313A801A80A3C
:100BF0000A128A1142270A128A1108000A128A115F
:100C0000F8260A128A118316031391150A128A1103
:100C1000F8260A128A11831203131308F400F5014F
:100C20007408F6007508F7000A128A11F8260A12ED
:100C30008A1172037304031D1E2E1F2E232E83168A
:100C400003139112262E831603139116111677089B
:100C5000F3007608F20008003E2E73088400831724
:100C6000741C831300080A128A11E8260A128A11DA
:100C70000130F3070318F40A0030F4077308840006
:100C80008317741C83130008031D472E482E2D2E36
:100C9000831203130C1E4D2E4E2E502E0D30990034
:100CA0000800F7007703031D562E572E612E760895
:100CB0007F3EF80078080A128A1191260A128A11DA
:100CC000702E02307706031D662E672E702E760872
:100CD000BF3EF80078080A128A1191260A128A117A
:100CE00008000B1C742E752E8A2E83120313061C0B
:100CF0007A2E7B2E892E26032704031D802E812E1B
:100D0000852EA601A701A801892E0130A60000307A
:100D1000A7000B1071088A00700E8300FE0E7E0E75
:100D20000900F50083120313071075080A128A11CF
:100D300019250A128A118312031387140B30F40049
:100D40006230F300F30BA22EF40BA22E00008312EC
:100D5000031387100800F4008312031307147408A8
:100D60000A128A1119250A128A1183120313871491
:100D70001A30F300F30BBA2E00008312031387100E
:100D80000800F400F301741CC62EC72ECB2E720887
:100D9000FF007F08F3070310F20D0310F40C740832
:100DA000031DD32ED42EC32E73080800F300F201C6
:100DB0003A3073020318DD2EDE2EE62E3030730239
:100DC000031CE32EE42EE62EF201F20A720C080058
:100DD000F20083160313981CEE2EEF2EE92E8312D9
:100DE00003130C1EF42EF52EF72E7208990008003E
:100DF000831603131419FD2EFE2EF82E11081F3929
:100E0000031D032F042FF82E080000300A128A1148
:100E100091260A128A1101300A128A1191260A12A9
:100E20008A1108008B170B108B15831603131614E9
:100E3000961481131514951408000A128A11F826C5
:100E40000A128A11720883120313930008000A120F
:100E50008A11F8260A128A11831603131115080045
:100E60000A128A11F8260A128A1183160313111422
:100E700008008312031305148510051585168511C6
:100E80000516080083120313051485100515851631
:100E9000851505120800831203130514851005112A
:100EA000851685110512080064008001840A040675
:080EB000031900340406552F5C
:08400000FF3FFF3FFF3FFF3FC0
:04400E00D420FF3F7C
:00000001FF
