:060000000A128A110C280F
:10000800FE00030EF0000A08F1000A128A11CB2E36
:100018000A128A110F28FA01FB0183132030840089
:100028003E300A128A11AE270A128A1183010A1277
:100038008A117C29453083120313CC0065292530A9
:1000480051060319282829283728420884008317CD
:10005800431C8313510880000130C2070318C30AE8
:100068000030C3076529CD01440884000A128A11AB
:100078000A240A128A112E3A031D43284428772895
:100088000130FF007F08C407D001662883120313DC
:100098005008F2000A300A128A111B270A128A1124
:1000A80083120313D000440884000A128A110A2418
:1000B8000A128A11D03EFF007F08D0070130FF00E6
:1000C8007F08C407440884000A128A110A240A1205
:1000D8008A110A128A1130270A128A110318752800
:1000E80076284A287828D001013083120313C407E0
:1000F800FF30440784000A128A110A240A128A115E
:10010800D100C900CA014A08003A03198C28652998
:100118004908003A03197529643A031997280D3AD2
:100128000319972865294C08840083130008CE001A
:10013800840A0008CF000230FF007F08CC07CF1FD9
:10014800A628A728B0280330FF007F08CD04CE09D1
:10015800CF09CE0A0319CF0A5008031DB428B528C1
:10016800BF284E084F04031DBA28BB28BF280130FA
:10017800FF007F08D007D101D10A5108C9004907FB
:10018800013E84000A128A110A240A128A11CA003E
:100198000A128A110A240A128A11CB004B084F024C
:1001A800031DD8284A084E020318DB28DC28DD285E
:1001B800E7280130FF007F08D10705305106031DED
:1001C800E628E728C1285008C900CA01C91BCA0384
:1001D8004A08803A803C031DF32849085102031855
:1001E800F628F728F8281029831203135008C900A5
:1001F800CA01C91BCA034A08803ACB0080304B02A7
:10020800031D08295108490203180B290C29102934
:10021800831203135108D000831203134D080339C6
:100228000319172918295C29420884008317431CDD
:1002380083132D3080000130C2070318C30A003031
:10024800C3075C290A30BE000030BF005008C9004F
:100258004907013E84000A128A110A240A128A11E7
:10026800F2000A128A110A240A128A11F3004F08AE
:10027800F5004E08F4000A128A11ED240A128A11B8
:10028800730883120313C1007208C0000A128A118E
:10029800B1250A128A11831203133E08303ED10099
:1002A800420884008317431C8313510880001F29C8
:1002B800FF30FF007F08D007500A031D6429652915
:1002C80026290130C407FF30440784000A128A1126
:1002D8000A240A128A11D1005108031D74297529AC
:1002E8002328420884008317431C831380010800D5
:1002F8000A128A1131250A128A118312031326035E
:100308002704031D8829892993290A128A11502351
:100318000A128A110A128A11EF220A128A110A1283
:100328008A110D220A128A113730FA007A088312CC
:100338000313D400D5015408C2005508C300273060
:10034800C4002708C6002608C5002808D600D7011B
:100358005608C7005708C8000A128A111E200A1238
:100368008A117A0883120313D400D5015408F300C4
:100378005508F4000A128A1186260A128A110A30D0
:100388000A128A1142270A128A11043083120313AF
:10039800D6000C30D5003330D400D40BD129D50B7E
:1003A800D129D60BD1297A0883120313D400D50199
:1003B8005408C2005508C3002F30C4002C08D600CA
:1003C800D7015608C5005708C6007B08D800D901D0
:1003D8005808C7005908C8000A128A111E200A12B4
:1003E8008A117A0883120313D400D5015408F30044
:1003F8005508F4000A128A1186260A128A110A3050
:100408000A128A1142270A128A1181290A128A11AC
:100418000C288312031326032704031D142A152A04
:100428006A2A0A128A115F270A128A11F601F60A45
:1004380001300A128A11AB260A128A112E30831251
:100448000313C2000030C3000B30C4007B08D20085
:10045800D3015208C5005308C6000A128A111E208B
:100468000A128A112E30F5000030F6000A128A119D
:10047800A7240A128A110A128A1125260A128A1139
:10048800F601F60A02300A128A11AB260A128A11FC
:100498002E3083120313C2000030C3001A30C40088
:1004A8002C08D200D3015208C5005308C6000A120E
:1004B8008A111E200A128A112E30F5000030F6002B
:1004C8000A128A11A7240A128A11862AAC010A1272
:1004D8008A11A5270A128A110A128A115F270A129D
:1004E8008A11F601F60A01300A128A11AB260A129D
:1004F8008A113D30F5008030F6000A128A11A724CF
:100508000A128A110800003083120313C200003057
:10051800C1000030C0000030BF00750874047304C7
:1005280072040319982A992AE62AC301C30AA92A38
:100538000130BE000310F20DF30DF40DF50DBE0BE6
:100548009E2A0130FF007F08C307F51FAC2AAD2A99
:100558009C2A0130BE000310BF0DC00DC10DC20D95
:10056800BE0BAF2A75087902031DC42A74087802E5
:10057800031DC42A73087702031DC42A7208760271
:10058800031CC72AC82AD72A7208F6027308031C54
:10059800730FF7027408031C740FF8027508031C24
:1005A800750FF9023F1401300310F50CF40CF30C2D
:1005B800F20CFF3E031DD82A0130C302031DE52AB1
:1005C800E62AAD2A4208F5004108F4004008F30085
:1005D8003F08F20008000A128A118A270A128A11B3
:1005E8006130F2000030F3000A128A1177270A12EC
:1005F8008A110030F200F3000A128A1158260A12F2
:100608008A117208F8000A128A1181270A128A11BF
:10061800033083120313C0000830BF007630BE00D9
:10062800BE0B142BBF0B142BC00B142B00000A128B
:100638008A118A270A128A116030F2000030F3000A
:100648000A128A1177270A128A11831203132808BB
:10065800BE00BF013E08F2003F08F3000A128A11EB
:1006680077270A128A110A128A1181270A128A1117
:10067800780883120313AC00033083120313C000FD
:100688000830BF007630BE00BE0B482BBF0B482B8E
:10069800C00B482B000008000A128A118A270A1288
:1006A8008A115130F2000030F3000A128A117727BC
:1006B8000A128A110030F200F3000A128A11582631
:1006C8000A128A117208F8000A128A1181270A127E
:1006D8008A11033083120313C0000830BF0076303C
:1006E800BE00BE0B752BBF0B752BC00B752B000006
:1006F8000A128A118A270A128A115030F200003031
:10070800F3000A128A1177270A128A118312031337
:100718002708F3002608F2000A128A1177270A121E
:100728008A110A128A1181270A128A117808FB0095
:10073800033083120313C0000830BF007630BE00B8
:10074800BE0BA42BBF0BA42BC00BA42B00000800CE
:10080000FF1B0A2C83137F1883170008840A03191F
:10081000FF0A080004308A000408840A82070034B2
:10082000013400340A34003464340034E8340334CE
:1008300010342734443469347334743461346E347E
:10084000633465343A34203425342E3432346434FD
:1008500000344234613473346B34653474343A3464
:10086000203425342E34323464340034503425346A
:100870006434203446342534643400345734253409
:1008800064342034553425346434003448346534B9
:100890006C346C346F3400344F3466346634003456
:1008A00020342034003421342134003400300A1242
:1008B0008A1173250A128A113430F700F130F600DC
:1008C000F60B602CF70B602C652C30300A128A1165
:1008D000EB260A128A110D30F700FB30F600F60BFA
:1008E0006F2CF70B6F2C742C30300A128A11EB2608
:1008F0000A128A111D30F7009130F600F60B7E2C9B
:10090000F70B7E2C30300A128A11EB260A128A115C
:1009100038300A128A11EB260A128A1108300A129C
:100920008A11EB260A128A1101300A128A11EB266B
:100930000A128A1106300A128A11EB260A128A114B
:100940000C300A128A11EB260A128A11080083124F
:100950000313BE01BF01D02C3E087507F8007608CE
:10096000F7000318F70ABE1FB62CF7037708F90043
:10097000790883120313FF00780884000A128A1191
:1009800000240A128A110A128A1105270A128A11F2
:10099000013083120313BE070318BF0A0030BF07DC
:1009A0003E087507F8007608F7000318F70ABE1F1F
:1009B000DA2CF7037708F900790883120313FF0094
:1009C000780884000A128A1100240A128A11003A57
:1009D000031DEB2CEC2CAC2C0800F601F70172087F
:1009E00073040319F42CF52C2C2DF801F80A032DAF
:1009F00001300310F20DF30DFF3E031DF92C013001
:100A0000FF007F08F807F31F062D072DF82C013093
:100A10000310F60DF70DFF3E031D082D7308750238
:100A2000031D142D72087402031C172D182D1F2D81
:100A30007208F4027308031CF503F5027614013002
:100A40000310F30CF20CFF3E031D202D0130F802C1
:100A5000031D2B2D2C2D072D7708F3007608F200AF
:100A600008007030831603138F040F141812181522
:100A7000831603178715CF308316031399009A0145
:100A800083160317880189018030831603138700BA
:100A900085010130860088018312031385018601D8
:100AA00087018801981718131816831603139816D0
:100AB00001300A128A116C270A128A11003083123F
:100AC0000313C7000130C6008630C500A030C40043
:100AD0000A128A11ED250A128A110A128A11562465
:100AE0000A128A110800F200721C772D782D7C2DD5
:100AF0008312031308147F2D831203130810F21CB2
:100B0000822D832D852D8814862D8810721D892DA8
:100B10008A2D8C2D08158D2D0811F21D902D912DEB
:100B2000932D8815942D8811721E972D982D9A2D2E
:100B300008169B2D0812F21E9E2D9F2DA12D8816A2
:100B4000A22D8812721FA52DA62DA82D0817A92D3C
:100B50000813F21FAC2DAD2DAF2D8817B02D8813C3
:100B60000800831203133E083F040319B82DB92D62
:100B7000E82DF901F90AC72D01300310BE0DBF0D94
:100B8000FF3E031DBD2D0130FF007F08F907BF1F89
:100B9000CA2DCB2DBC2D3F084102031DD12D3E088F
:100BA0004002031CD42DD52DDB2D3E08C0023F088A
:100BB000031CC103C10201300310BF0CBE0CFF3E79
:100BC000031DDC2D0130F902031DE72DE82DCB2D8F
:100BD0004108BF004008BE000800283083120313FC
:100BE0009400831603139101831203134408C80071
:100BF0004508C9004608CA004708CB000230031068
:100C0000C80DC90DCA0DCB0DFF3E031DFF2D4B08AE
:100C1000F5004A08F4004908F3004808F2000030E3
:100C2000F9007A30F8001230F7000030F6000A12AE
:100C30008A1187220A128A117208FF3E8316031353
:100C4000930094018715071608000F30F600013055
:100C50000A128A11AB260A128A1108307B02031885
:100C6000322E332E452E4430F5008030F6000A1225
:100C70008A11A7240A128A1183120313A8010A12E7
:100C80008A1193270A128A11572E4130F5008030BD
:100C9000F6000A128A11A7240A128A11831203137A
:100CA000A801A80A0A128A119C270A128A110800B0
:100CB0000A128A1152270A128A11831603139115F8
:100CC0000A128A1152270A128A1183120313130877
:100CD000F400F5017408F6007508F7000A128A118D
:100CE00052270A128A1172037304031D782E792E7B
:100CF0007D2E831603139112802E831603139116F3
:100D000011167708F3007608F2000800982E730891
:100D100084008317741C831300080A128A11422767
:100D20000A128A110130F3070318F40A0030F4079D
:100D3000730884008317741C83130008031DA12EFD
:100D4000A22E872E831203130C1EA72EA82EAA2EC6
:100D50000D3099000800F7007703031DB02EB12E67
:100D6000BB2E76087F3EF80078080A128A11EB261F
:100D70000A128A11CA2E02307706031DC02EC12E18
:100D8000CA2E7608BF3EF80078080A128A11EB26B0
:100D90000A128A1108000B1CCE2ECF2EE42E8312CD
:100DA0000313061CD42ED52EE32E26032704031D81
:100DB000DA2EDB2EDF2EA601A701A801E32E0130DB
:100DC000A6000030A7000B1071088A00700E830087
:100DD000FE0E7E0E0900F50083120313071075083E
:100DE0000A128A1173250A128A11831203138714B7
:100DF0000B30F4006230F300F30BFC2EF40BFC2EEE
:100E000000008312031387100800F40083120313F9
:100E1000071474080A128A1173250A128A118312A0
:100E2000031387141A30F300F30B142F00008312FE
:100E3000031387100800F400F301741C202F212FE6
:100E4000252F7208FF007F08F3070310F20D03102F
:100E5000F40C7408031D2D2F2E2F1D2F730808006E
:100E6000F300F2013A3073020318372F382F402F66
:100E700030307302031C3D2F3E2F402FF201F20A47
:100E8000720C0800F20083160313981C482F492F98
:100E9000432F831203130C1E4E2F4F2F512F720816
:100EA00099000800831603131419572F582F522F37
:100EB00011081F39031D5D2F5E2F522F08000030CF
:100EC0000A128A11EB260A128A1101300A128A11BB
:100ED000EB260A128A1108008B170B108B1583164C
:100EE00003131614961481131514951408000A128E
:100EF0008A1152270A128A1172088312031393006F
:100F000008000A128A1152270A128A118316031343
:100F1000111508000A128A1152270A128A11831623
:100F2000031311140800831203130514851005150B
:100F30008516851105160800831203130514851004
:100F4000051585168515051208008312031305146F
:100F500085100511851685110512080064008001B1
:0C0F6000840A0406031900340406AF2FB5
:08400000FF3FFF3FFF3FFF3FC0
:04400E00D420FF3F7C
:00000001FF
