:060000000A128A110C280F
:10000800FE00030EF3000A08F4000A128A117A2887
:100018000A128A110F28F601F701F80183010A1262
:100028008A11552908308312031320062104031D61
:100038001E281F2823287030831603138F040430CA
:10004800831220062104031D2A282B283128831611
:1000580003130F088F3960388F008312200321049F
:10006800031D372838283E28831603130F088F39B5
:1000780040388F00F43083122006031D47282103DF
:10008800031D472848284E28831603130F088F3965
:1000980030388F00FA30831220062104031D5528BA
:1000A80056285C28831603130F088F3950388F00A1
:1000B8007D30831220062104031D632864286A28E2
:1000C800831603130F088F3910388F001F308312DF
:1000D80020062104031D7128722876288F30831684
:1000E80003138F05831603130F14080083120313D9
:1000F8008C1D7F288028A1280A128A115E210A12E5
:100108008A11F2007208F6007608031D8C288D28E3
:1001180096288312031306080A128A116E210A12FE
:100128008A119E288312031306080A128A116E2167
:100138000A128A11831203138C110C1FA428A528F4
:10014800D1281F0CF200720C0F39003A031DAD289C
:10015800AE28C02801300A128A1147210A128A11D2
:100168008312031386000D30F200F20BB9288312B4
:1001780003130C139F14D12800300A128A11472147
:100188000A128A118312031388000D30F200F20B51
:10019800CB28831203130C139F1474088A00730E60
:1001A8008300FE0E7E0E09008316031789010814CA
:1001B800881403308316031385008601880183128F
:1001C800031385018601880187018B170B178C1192
:1001D800831603138C15851607110A128A1132210A
:1001E8000A128A11083083120313A0000030A100FC
:1001F8000A128A1116200A128A110C30831203136C
:10020800A300A30B0529000083120313A001A10179
:10021800A20124300A128A1114210A128A11080034
:10022800F500831603138712751D1B291C29242921
:1002380083120313220883160313940087152C29AD
:1002480083120313200822048316031394008711D2
:100258007508831203132104940008003F308312A9
:1002680003139F051F111F14831603139F121F12D8
:100278009F130C178B178B150B17831203139F14DF
:10028800C3309F050800F1007108F000F00DF00D73
:10029800831203131F087006C33970069F001E08D7
:1002A80008000A128A11D8200A128A115A290A1239
:1002B8008A110C280A128A1167210A128A118312DC
:1002C80003131308080083160313141C6C296D29E3
:1002D80067290800F00070088312031393000800D0
:08400000FF3FFF3FFF3FFF3FC0
:04400E00D420FF3F7C
:00000001FF
