:060000000A128A11FC2F18
:100F900083160313871507168030940008309300DA
:100FA00036308312031394008C1DD72FD82FD42FE3
:100FB0008C11141BDC2FDD2FF52F941BE02FE12F5C
:100FC000F52F83160313141DE62FE72FE82FF52FB7
:100FD000141CEB2FEC2FE82F1A30F100F830F00042
:100FE000F00BF02FF10BF02F0000831203131416F7
:100FF000D42F0A128A11002883010A128A11C82FDD
:08400000FF3FFF3FFF3FFF3FC0
:04400E00D420FF3F7C
:00000001FF
