:060000000A128A110E280D
:10000800FE00030EF2000A08F3007F08F4000A124B
:100018008A117D280A128A111128F501F601F701C3
:10002800F80183010A128A111F2908308312031369
:1000380020062104031D2128222826287030831633
:1000480003138F040430831220062104031D2D2876
:100058002E283428831603130F088F3960388F0031
:10006800831220032104031D3A283B2841288316C4
:1000780003130F088F3940388F00F430831220069D
:10008800031D4A282103031D4A284B28512883169B
:1000980003130F088F3930388F00FA308312200687
:1000A8002104031D582859285F28831603130F08B5
:1000B8008F3950388F007D30831220062104031DAC
:1000C800662867286D28831603130F088F391038A0
:1000D8008F001F30831220062104031D7428752801
:1000E80079288F30831603138F05831603130F1493
:1000F80008000B1C802881289C28831203130618EB
:10010800862887288C280A128A118F210A128A11B8
:100118008312031386189128922897280A128A11A5
:10012800A3210A128A11831203130808F6000B1080
:10013800831203138C1DA128A228BD280A128A1134
:1001480086210A128A11F5007508031DAC28AD280E
:10015800B42877080A128A119D210A128A11BA282E
:1001680076080A128A119D210A128A118312031332
:100178008C110C1FC028C128D3281F0CF100710C4A
:100188000F39003A031DC928CA28D3280A128A1130
:10019800A8210A128A11F700831203130C1374089A
:1001A800FF0073088A00720E8300FE0E7E0E09009F
:1001B800083083120313A0000030A1000A128A112C
:1001C80019200A128A1183160317890108140130AD
:1001D80083160313850003308600880183120313F6
:1001E8008501860188010A128A1161210A128A1181
:1001F800193083120313A400A40B002903298312C6
:1002080003138C11831603138C158516831203139D
:10021800A001A101A20124300A128A1143210A1265
:100228008A110B108B158316031316149614811359
:100238001514951408000A128A11DC200A128A1172
:10024800831203131F0CA500250C0F39003A031D58
:100258002E292F29242900300A128A1179210A12FD
:100268008A110C3083120313A500A50B392900004D
:10027800831203139F1424290A128A110E28831249
:100288000313A30083160313871283120313231D7A
:100298004E294F29552922088316031394008715E0
:1002A8005B29200822048316031394008711831204
:1002B800031323082104940008003F30831203131A
:1002C8009F051F111F14831603139F121F129F13DC
:1002D8008B170B170C17831203139F1400300A1285
:1002E8008A1179210A128A11080083120313A100C6
:1002F8002108A000A00DA00D1F082006C339200664
:100308009F0008000A128A1196210A128A11831284
:100318000313130808000130FF007F08831203133A
:100328008807080083160313141C9B299C29962907
:100338000800F000700883120313930008000130CE
:100348008312031388020800831203131E0808008F
:08400000FF3FFF3FFF3FFF3FC0
:04400E00D420FF3F7C
:00000001FF
