:060000000A128A110E280D
:10000800FE00030EF0000A08F1007F08F2000A1251
:100018008A113D280A128A11112883010A128A11AD
:100028006C28831603178801890183160313870137
:100038008312031387010530831603138600831286
:10004800031386018316031381128111F830810589
:100058008312031381010B1101300A128A116120E6
:100068000A128A1103300A128A1161200A128A11AF
:1000780008000B1C4028412858288312031306182F
:10008800462847284C280A128A1175200A128A1114
:100098008312031306195128522857280A128A1165
:1000A8007C200A128A110B107208FF0071088A005E
:1000B800700E8300FE0E7E0E09008B170B108B1539
:1000C80083160313161416158113151495140800B6
:1000D8000A128A1115200A128A1171280A128A1125
:1000E8000E280130FF007F088312031387070800DA
:0A00F8000130831203138702080091
:08400000FF3FFF3FFF3FFF3FC0
:04400E00D53FFF3F5C
:00000001FF
