:060000000A128A1110280B
:10000800FE00030EF6000408F7000A08F8007F084F
:10001800F9000A128A1127280A128A111328831351
:100028004330FD000130FE008B30FF003330840088
:100038000A128A117C210A128A11C301C4018301A0
:100048000A128A1164290B1C2A282B284228831299
:10005800031306183028312836280A128A11C421B9
:100068000A128A118312031386183B283C28412858
:100078000A128A11CB210A128A110B108312031358
:100088000C1F47284828622844080706031D4D28E6
:100098004E28502806165128061200300A128A11D6
:1000A800AB210A128A1183120313C4000D30F40025
:1000B800F40B5C28831203130C139F140B1D652883
:1000C80066289E2881018D28061144080F390A12D6
:1000D8008A1147210A128A11831203138800861590
:1000E800C301C30A9D2886114408F4000430031094
:1000F800F40CFF3E031D7B2874080F390A128A117D
:1001080047210A128A118312031388000615C301B6
:100118009D284308F400F5017508003A031995284D
:100128009D287408003A03196828013A03197728AA
:100138009D280B117908FF0078088A007708840049
:10014800760E8300FE0E7E0E09000830831203131C
:1001580031063204031DB128B228B6287030831640
:1001680003138F040430831231063204031DBD28A3
:10017800BE28C428831603130F088F3960388F00F0
:10018800831231033204031DCA28CB28D1288316D1
:1001980003130F088F3940388F00F430831231066B
:1001A800031DDA283203031DDA28DB28E128831629
:1001B80003130F088F3930388F00FA308312310655
:1001C8003204031DE828E928EF28831603130F08D3
:1001D8008F3950388F007D30831231063204031D69
:1001E800F628F728FD28831603130F088F391038CF
:1001F8008F001F30831231063204031D042905299C
:1002080009298F30831603138F05831603130F14E0
:100218000800831603178901081483160313850140
:10022800870183120313870183160313880183123E
:100238000313880103308316031386008312031304
:1002480086018316031381128111F8308105831208
:10025800031381010B1101300A128A11B9210A1204
:100268008A1103300A128A11B9210A128A1104303C
:1002780083120313B1000030B2000A128A11A920B8
:100288000A128A11080083120313B0002030840078
:100298003330F0000408F1001030F20070088400D8
:1002A80083130008F300F00A7108840073088000C3
:1002B800F10AF20B52293008203E84000008080099
:1002C8000A128A110D210A128A11013083120313AE
:1002D800B1000030B2000A128A119B210A128A1159
:1002E80074290A128A1110287E088A007F08820061
:1002F8000A128A1178210A128A118000840A0408D5
:100308007D0603190034FF0A0319FE0A7C293F34CD
:1003180006345B344F3466346D347D3407347F34AF
:100328006F3477347C3439345E34793471343F3007
:10033800831203139F051F111F14831603139F12A3
:100348001F129F130C17831203139F140800F10048
:100358007108F000F00DF00D831203131F087006EA
:10036800C33970069F001E0808008B170B108B15E9
:100378008316031316149614811315149514080084
:100388000130FF007F08831203138707080001303C
:08039800831203138702080021
:08400000FF3FFF3FFF3FFF3FC0
:04400E00D53FFF3F5C
:00000001FF
