:060000000A128A110C280F
:10000800FE00030EF1000A08F2000A128A11D02835
:100018000A128A110F280A128A1133210A128A1128
:10002800FA00F801F90183010A128A11AA28083096
:1000380073067404031D212822282628703083168D
:1000480003138F04043073067404031D2C282D2811
:100058003328831603130F088F3960388F00730312
:100068007404031D382839283F28831603130F0802
:100078008F3940388F00F4307306031D4728740306
:10008800031D472848284E28831603130F088F3965
:1000980030388F00FA3073067404031D542855282D
:1000A8005B28831603130F088F3950388F007D3073
:1000B80073067404031D61286228682883160313D5
:1000C8000F088F3910388F001F3073067404031D12
:1000D8006E286F2873288F30831603138F058316B5
:1000E80003130F1408000830F3000030F4000A125C
:1000F8008A111B200A128A11831603178901081412
:1001080001308316031385008601880183120313C7
:100118008501860188010A128A11F4200A128A11BF
:100128001A30F700F70B96280000831203138C117E
:10013800831603138C158516F301F401F501243099
:100148000A128A110C210A128A1108000A128A114D
:1001580077200A128A11831203131F0CA000200CA7
:100168000F39003A031DB928BA28CA2800300A12E4
:100178008A1122210A128A110C3083120313A0005B
:10018800A00BC4280000831203139F147A08880068
:10019800AF280A128A110C28831203138C1DD52844
:1001A800D628D7288C110C1FDA28DB28ED281F0C3D
:1001B800F000700C0F39003A031DE328E428ED28FD
:1001C8000A128A112F210A128A11FA0083120313C4
:1001D8000C1372088A00710E8300FE0E7E0E090051
:1001E8003F30831203139F051F111F148316031337
:1001F8009F121F129F138B170B170C1783120313D1
:100208009F1400300A128A1122210A128A1108004A
:10021800F600831603138712761D1329142918294B
:100228007508940087151C297308750494008711B4
:10023800760874048312031394000800F400740809
:10024800F300F30DF30D831203131F087306C3396C
:1002580073069F000800831203131E080800033466
:08400000FF3FFF3FFF3FFF3FC0
:04400E00D420FF3F7C
:00000001FF
