:060000000A128A110C280F
:10000800FE00030EF1000A08F2000A128A117C2889
:100018000A128A110F28F701F801F901FA01830180
:100028000A128A1117280A128A11CB210A128A1178
:100038000A128A1106220A128A110A128A11352115
:100048000A128A11831203132408F8002308F70000
:100058004728FF3085006928FE3085006928FC3074
:1000680085006928F83085006928F03085006928FE
:10007800E03085006928C030850069288030850017
:100088006928850169287808003A03194C286928E5
:100098007708023A03192D28013A03193028053A3E
:1000A800031933280E3A03193628023A0319392856
:1000B800063A03193C28023A03193F281E3A031945
:1000C8004228023A0319452869280330831203138A
:1000D800AF000830AE007630AD00AD0B7128AE0B26
:1000E8007128AF0B7128000021280A128A110C28E8
:1000F800831203138C1D81288228D2281412141B02
:10010800862887288B28941F8A288B2890281308EC
:10011800FA0014139413141683160313941A9528CB
:100128009628B028141999289A28B02883120313FE
:100138001308FA008C11141683160313141CA5282F
:10014800A628A0288312031313088800A630F000FD
:10015800F00BAC280000CF28941AB328B428CF2875
:10016800141DB728B828CF28831203131308FA00E0
:1001780083160313141077088312031393001416BD
:10018800A630F000F00BC6280000831603131418DD
:10019800CE28CF28C928831203138C1172088A002D
:1001A800710E8300FE0E7E0E09000830730674047B
:1001B800031DDF28E028E4287030831603138F041A
:1001C800043073067404031DEA28EB28F12883160B
:1001D80003130F088F3960388F0073037404031DED
:1001E800F628F728FD28831603130F088F3940389F
:1001F8008F00F4307306031D05297403031D0529B8
:1002080006290C29831603130F088F3930388F00FD
:10021800FA3073067404031D122913291929831649
:1002280003130F088F3950388F007D30730674041C
:10023800031D1F2920292629831603130F088F3928
:1002480010388F001F3073067404031D2C292D29C4
:1002580031298F30831603138F05831603130F1468
:1002680008008312031306151A3083120313A6001D
:10027800F730A500A50B3E29A60B3E29432983127A
:1002880003130611861D49294A294629101486197F
:100298004E294F294B2910100F08A8000E08A70057
:1002A8002808A6002708A5000310A60CA50C2508F9
:1002B800AB002608AC005A302C02A13003192B02DF
:1002C8000318672968297C293A30F3000030F400C4
:1002D8002C08F6002B08F5000A128A1185210A124B
:1002E8008A11740883120313AA007308A9007E29CF
:1002F800A901AA018E018F012A08A4002908A300D8
:10030800080083120313A101A201730874040319DE
:100318008E298F29C629A001A00A9D290130031022
:10032800F30DF40DFF3E031D93290130FF007F08F4
:10033800A007F41FA029A129922901300310A10DBB
:10034800A20DFF3E031DA22974087602031DAE29E3
:1003580073087502031CB129B229B9297308F5027B
:100368007408031CF603F602211401300310F40C80
:10037800F30CFF3E031DBA290130A002031DC52955
:10038800C629A1292208F4002108F3000800083032
:10039800F3000030F4000A128A11D9200A128A11D7
:1003A8008B170B178316031788018901831603130C
:1003B80085010830860088018312031385018601B0
:1003C800880150300A128A11EC210A128A11080099
:1003D800F300730883160313930036308312031354
:1003E8009400803083160313940001309100871520
:1003F80007168B170B17831203138C11831603131D
:100408008C15080083120313101290108E018F01AF
:0404180010100800B8
:08400000FF3FFF3FFF3FFF3FC0
:04400E00D420FF3F7C
:00000001FF
