:060000000A128A110C280F
:10000800FE00030EF1000A08F2000A128A111728EE
:100018000A128A110F28F701F801F901FA01830180
:100028000A128A116629831203138C1D1C281D28A5
:100038006D281412141B212822282628941F2528ED
:1000480026282B281308FA00141394131416831661
:100058000313941A302831284B28141934283528CA
:100068004B28831203131308FA008C1114168316F5
:100078000313141C402841283B2883120313130838
:10008800F900A630F000F00B472800006A28941AFF
:100098004E284F286A28141D522853286A2883128C
:1000A80003131308FA008316031314107708831236
:1000B800031393001416A630F000F00B612800001B
:1000C80083160313141869286A28642883120313F3
:1000D8008C1172088A00710E8300FE0E7E0E0900D4
:1000E800083073067404031D7A287B287F28703033
:1000F800831603138F04043073067404031D8528C4
:1001080086288C28831603130F088F3960388F00D0
:1001180073037404031D91289228982883160313E7
:100128000F088F3940388F00F4307306031DA0285C
:100138007403031DA028A128A728831603130F08FA
:100148008F3930388F00FA3073067404031DAD28D8
:10015800AE28B428831603130F088F3950388F0040
:100168007D3073067404031DBA28BB28C128831682
:1001780003130F088F3910388F001F30730674046B
:10018800031DC728C828CC288F30831603138F0572
:10019800831603130F1408008312031306151A306D
:1001A80083120313A600F730A500A50BD928A60BC8
:1001B800D928DE28831203130611861DE428E528B2
:1001C800E12810148619E928EA28E62810100F08F3
:1001D800A8000E08A7002808A6002708A5000310F5
:1001E800A60CA50C2508AB002608AC005A302C023A
:1001F800A13003192B0203180229032917293A30C1
:10020800F3000030F4002C08F6002B08F5000A1261
:100218008A1120210A128A11740883120313AA0072
:100228007308A9001929A901AA018E018F012A08BA
:10023800A4002908A300080083120313A101A20146
:1002480073087404031929292A296129A001A00A1D
:10025800382901300310F30DF40DFF3E031D2E293C
:100268000130FF007F08A007F41F3B293C292D29F6
:1002780001300310A10DA20DFF3E031D3D29740896
:100288007602031D492973087502031C4C294D2960
:1002980054297308F5027408031CF603F6022114A6
:1002A80001300310F40CF30CFF3E031D55290130F7
:1002B800A002031D602961293C292208F4002108B5
:1002C800F30008000A128A1193210A128A110A12ED
:1002D8008A11CE210A128A117903031D74297529FE
:1002E80070290A128A11D0200A128A118312031364
:1002F8002408F8002308F700033083120313AF0023
:100308000830AE007630AD00AD0B8829AE0B8829D9
:10031800AF0B8829000070290A128A110C280830AE
:10032800F3000030F4000A128A1174200A128A11AC
:100338008B170B178316031788018901831603137C
:100348008501083086008801831203138501860120
:10035800880150300A128A11B4210A128A11080041
:10036800F3007308831603139300363083120313C4
:100378009400803083160313940001309100871590
:1003880007168B170B17831203138C11831603138D
:100398008C15080083120313101290108E018F0120
:0403A8001010080029
:08400000FF3FFF3FFF3FFF3FC0
:04400E00D420FF3F7C
:00000001FF
