:060000000A128A110C280F
:10000800FE00030EF1000A08F2000A128A111628EF
:100018000A128A110F28F601F701F80183010A1262
:100028008A11E528831203138C1D1B281C286C28B1
:100038001412141B202821282528941F2428252839
:100048002A281308F800141394131416831603139C
:10005800941A2F2830284A281419332834284A2873
:10006800831203131308F8008C1114168316031354
:10007800141C3F2840283A288312031313088800C9
:10008800A630F000F00B462800006928941A4D2885
:100098004E286928141D51285228692883120313F1
:1000A8001308F80083160313141076088312031339
:1000B80093001416A630F000F00B60280000831699
:1000C80003131418682869286328831203138C11F2
:1000D8000C1F6F28702882281F0CF000700C0F3935
:1000E800003A031D7828792882280A128A11822169
:1000F8000A128A11F600831203130C1372088A007D
:10010800710E8300FE0E7E0E09000830730674041B
:10011800031D8F28902894287030831603138F04AA
:10012800043073067404031D9A289B28A12883169B
:1001380003130F088F3960388F0073037404031D8D
:10014800A628A728AD28831603130F088F3940382F
:100158008F00F4307306031DB5287403031DB528FA
:10016800B628BC28831603130F088F3930388F0040
:10017800FA3073067404031DC228C328C9288316DD
:1001880003130F088F3950388F007D3073067404BD
:10019800031DCF28D028D628831603130F088F39BC
:1001A80010388F001F3073067404031DDC28DD2807
:1001B800E1288F30831603138F05831603130F145A
:1001C80008000A128A1119210A128A1183120313CC
:1001D8001F0CA000200C0F39003A031DF428F52845
:1001E800052900300A128A1175210A128A110C3069
:1001F80083120313A000A00BFF280000831203132F
:100208009F1476088600063083120313A200133069
:10021800A100AD30A000A00B0F29A10B0F29A20B44
:100228000F29EA280A128A110C280830F300003036
:10023800F4000A128A1189200A128A1183160317F8
:100248008801013089000130831603138500860177
:100258008801831203138501860188010A128A1115
:100268005D210A128A111A30F500F50B39290000B0
:1002780050300A128A1143210A128A110800F30029
:100288007308831603139300363083120313940004
:1002980080308316031394000130910087150716E8
:1002A8008B170B17831203138C11831603138C15EA
:1002B80008003F30831203139F051F111F14831674
:1002C80003139F121F129F138B170B170C17831200
:1002D80003139F1400300A128A1175210A128A1119
:1002E8000800F4007408F300F30DF30D83120313F0
:1002F8001F087306C33973069F000800831203138F
:040308001E080800C3
:08400000FF3FFF3FFF3FFF3FC0
:04400E00D420FF3F7C
:00000001FF
