:100000000A128A11ED2FFF1B0D2883137F18831707
:100010000008840A0319FF0A080000308A00040857
:10002000840A82070034013400340A340034643412
:100030000034E83403341034273453346C346134DE
:10004000763465343134203450346F3474343A3477
:0E005000003425342E3432346434203400342D
:1004DA000134F00070088312031393000800831696
:1004EA000313141C792A7A2A742A080064008001EA
:1004FA00840A04060319003404067C2A0A128A11A3
:10050A0074220A128A118312031313080800003096
:10051A000A128A11EC220A128A1101300A128A116D
:10052A00EC220A128A110800F100F0013A30710235
:10053A000318A02AA12AA92A30307102031CA62A6C
:10054A00A72AA92AF001F00A700C0800F200F101AA
:10055A00721CB02AB12AB52A7008FF007F08F10779
:10056A000310F00D0310F20C7208031DBD2ABE2AF7
:10057A00AD2A71080800F2008312031307147208E7
:10058A000A128A118A230A128A1183120313871400
:10059A001A30F100F10BCF2A0000831203138710DF
:1005AA000800F300831603138712731DDD2ADE2A5F
:1005BA00E22A720894008715E62A700872049400E9
:1005CA008711730871048312031394000800F3005F
:1005DA0083120313071073080A128A118A230A1254
:1005EA008A118312031387140B30F2006230F10070
:1005FA00F10BFD2AF20BFD2A000083120313871068
:10060A000800F5007503031D0B2B0C2B162B740821
:10061A007F3EF60076080A128A11EC220A128A1123
:10062A00252B02307506031D1B2B1C2B252B74084A
:10063A00BF3EF60076080A128A11EC220A128A11C3
:10064A0008000830F0000030F1000A128A119F24D5
:10065A000A128A118316031789019030831603132D
:10066A008700071186018801831203138601870117
:10067A00880107158B170B17F001F101F2012030E1
:10068A000A128A11D6220A128A110A128A114E24D1
:10069A000A128A110800770878040319552B562B79
:1006AA00852BFB01FB0A642B01300310F70DF80DB3
:1006BA00FF3E031D5A2B0130FF007F08FB07F81F7E
:1006CA00672B682B592B78087A02031D6E2B770843
:1006DA007902031C712B722B782B7708F9027808A0
:1006EA00031CFA03FA0201300310F80CF70CFF3E60
:1006FA00031D792B0130FB02031D842B852B682BEC
:10070A007A08F8007908F7000800F000701C8E2BB0
:10071A008F2B932B831203130814962B8312031324
:10072A000810F01C992B9A2B9C2B88149D2B88104F
:10073A00701DA02BA12BA32B0815A42B0811F01DAB
:10074A00A72BA82BAA2B8815AB2B8811701EAE2BB2
:10075A00AF2BB12B0816B22B0812F01EB52BB62BF5
:10076A00B82B8816B92B8812701FBC2BBD2BBF2B38
:10077A000817C02B0813F01FC32BC42BC62B8817CE
:10078A00C72B88130800F801F901ED2B78087307C5
:10079A00F6007408F5000318F50AF81FD52BF503BF
:1007AA007508F700770883120313FF0076088400A0
:1007BA000A128A1103200A128A110A128A11C02205
:1007CA000A128A110130F8070318F90A0030F907EA
:1007DA0078087307F6007408F5000318F50AF81F7D
:1007EA00F72BF5037508F700770883120313FF0048
:1007FA00760884000A128A1103200A128A11003A22
:10080A00031D082C092CCB2B0800F401F5017008F4
:10081A0071040319112C122C492CF601F60A202C0A
:10082A0001300310F00DF10DFF3E031D162C0130AF
:10083A00FF007F08F607F11F232C242C152C01300A
:10084A000310F40DF50DFF3E031D252C71087302EC
:10085A00031D312C70087202031C342C352C3C2CDD
:10086A007008F2027108031CF303F30274140130D6
:10087A000310F10CF00CFF3E031D3D2C0130F60273
:10088A00031D482C492C242C7508F1007408F0002B
:10089A00080000300A128A118A230A128A11343097
:1008AA00F500F130F400F40B582CF50B582C5D2CA4
:1008BA0030300A128A11EC220A128A110D30F50020
:1008CA00FB30F400F40B672CF50B672C6C2C3030E2
:1008DA000A128A11EC220A128A111D30F50091308F
:1008EA00F400F40B762CF50B762C30300A128A11B0
:1008FA00EC220A128A1138300A128A11EC220A12E0
:10090A008A1108300A128A11EC220A128A1101305D
:10091A000A128A11EC220A128A1106300A128A1164
:10092A00EC220A128A110C300A128A11EC220A12DB
:10093A008A110800083070067104031DA52CA62C24
:10094A00AA2C7030831603138F04043070067104C6
:10095A00031DB02CB12CB72C831603130F088F3943
:10096A0060388F0070037104031DBC2CBD2CC32C8E
:10097A00831603130F088F3940388F00F43070063E
:10098A00031DCB2C7103031DCB2CCC2CD22C83162C
:10099A0003130F088F3930388F00FA30700671044C
:1009AA00031DD82CD92CDF2C831603130F088F397B
:1009BA0050388F007D3070067104031DE52CE62C3B
:1009CA00EC2C831603130F088F3910388F001F3051
:1009DA0070067104031DF22CF32CF72C8F3083164A
:1009EA0003138F05831603130F140800F800780801
:1009FA000319002D012D152DF31F042D052D152D7D
:100A0A007009FA007109FB007209FC007309FD0004
:100A1A00FA0A0319FB0A0319FC0A0319FD0A1D2D18
:100A2A007308FD007208FC007108FB007008FA00E8
:100A3A007308720471047004031D242D252D2E2DB4
:100A4A000030F3000030F2000030F1000030F00016
:100A5A00B22D9630F9003E2D0130FF007F08F907CC
:100A6A0001300310FD0CFC0CFB0CFA0CFF3E031DBD
:100A7A00362DFE307D05031D432D442D312D602D6D
:100A8A000130FF007F08F9070130FA070030031828
:100A9A000130FB07003003180130FC07003003184F
:100AAA000130FD0701300310FD0CFC0CFB0CFA0CA5
:100ABA00FF3E031D582DFF307D05031D652D662D54
:100ACA00452D722D0130F9020130F4000310FA0DA0
:100ADA00FB0DFC0DFD0DF40B6B2DFC1B752D762DFE
:100AEA007C2D0230790203187B2D7C2D672D791815
:100AFA007F2D802D882DFF30FA05FF30FB057F30D2
:100B0A00FC05FF30FD050310F90C7908F400F50126
:100B1A00F601F70118300310F40DF50DF60DF70D77
:100B2A00FF3E031D902D7408FA047508FB0476082D
:100B3A00FC047708FD0478080319A42DA52DAA2D15
:100B4A00F31FA82DA92DAA2DFD177D08F3007C08F7
:100B5A00F2007B08F1007A08F00008000A128A11F4
:100B6A0026230A128A11831203134703031DBE2D7B
:100B7A00BF2DFA2D0711033083120313C4009730D7
:100B8A00C300C30BC62DC40BC62D8312031347081B
:100B9A000A128A116E220A128A110A128A118322F1
:100BAA000A128A1183120313A40003308312031357
:100BBA00C4009730C300C30BE02DC40BE02D831291
:100BCA0003130715023083120313C5000430C4004F
:100BDA00B930C300C30BEF2DC40BEF2DC50BEF2D9E
:100BEA00F62D83120313C701502E07110330831207
:100BFA000313C4009730C300C30B012EC40B012E8C
:100C0A008312031347080A128A116E220A128A11E2
:100C1A000A128A1183220A128A1183120313C30049
:100C2A00C401C501C6014608F3004508F20044089C
:100C3A00F1004308F00000300A128A11FB240A125C
:100C4A008A11730883120313A3007208A2007108A1
:100C5A00A1007008A000033083120313C400973068
:100C6A00C300C30B362EC40B362E8312031307158B
:100C7A00023083120313C5000430C400B930C30024
:100C8A00C30B452EC40B452EC50B452E4C2E831285
:100C9A000313C701C70A240886000A128A118C2284
:100CAA000A128A11F401F40A01300A128A1106237F
:100CBA000A128A110B30F3008030F4000A128A11EA
:100CCA00C8230A128A11F401F40A02300A128A119C
:100CDA0006230A128A11173083120313B600240856
:100CEA00C300C4014308B7004408B80026300A12FA
:100CFA008A119C260A128A112630F3000030F40069
:100D0A000A128A11C8230A128A110630831203139F
:100D1A00C5001330C400AD30C300C30B922EC40B00
:100D2A00922EC50B922EB82D0A128A110028831210
:100D3A000313BE003730BC00D82F253042060319F2
:100D4A00A72EA82EB22E3E088400420883138000E4
:100D5A000130FF007F08BE07D82FBD013608840086
:100D6A000A128A110D200A128A112E3A031DBE2E6A
:100D7A00BF2EF22E0130FF007F08B607C101E12E17
:100D8A00831203134108F0000A300A128A11AB22B7
:100D9A000A128A1183120313C100360884000A1248
:100DAA008A110D200A128A11D03EFF007F08C1075E
:100DBA000130FF007F08B607360884000A128A113C
:100DCA000D200A128A110A128A1199220A128A110C
:100DDA000318F02EF12EC52EF32EC1010130831215
:100DEA000313B607FF30360784000A128A110D2052
:100DFA000A128A11C200B900BA013A08003A031964
:100E0A00072FD82F3908003A0319E82F643A031933
:100E1A00122F0D3A0319122FD82F3C08840083137E
:100E2A000008BF00840A0008C0000230FF007F08E3
:100E3A00BC07C01F212F222F2B2F0330FF007F0852
:100E4A00BD04BF09C009BF0A0319C00A4108031D2E
:100E5A002F2F302F3A2F3F084004031D352F362FEE
:100E6A003A2F0130FF007F08C107C201C20A4208B7
:100E7A00B9003907013E84000A128A110D200A12AC
:100E8A008A11BA000A128A110D200A128A11BB00AD
:100E9A003B084002031D532F3A083F020318562FFE
:100EAA00572F582F622F0130FF007F08C2070530E5
:100EBA004206031D612F622F3C2F4108B900BA0177
:100ECA00B91BBA033A08803A803C031D6E2F3908D1
:100EDA0042020318712F722F732F8B2F8312031361
:100EEA004108B900BA01B91BBA033A08803ABB00F3
:100EFA0080303B02031D832F420839020318862FD4
:100F0A00872F8B2F831203134208C1008312031306
:100F1A003D0803390319922F932FCF2F3E088400DF
:100F2A002D30831380000130FF007F08BE07CF2FCA
:100F3A000A30F7000030F8004108B9003907013ECD
:100F4A0084000A128A110D200A128A11F0000A126C
:100F5A008A110D200A128A11F1004008F3003F0895
:100F6A00F2000A128A110A240A128A117108FA0076
:100F7A007008F9000A128A1150230A128A11770896
:100F8A00303E83120313C2003E08840042088313D2
:100F9A008000982FFF30FF007F08C107410A031D18
:100FAA00D72FD82F9D2F0130B607FF303607840080
:100FBA000A128A110D200A128A11C2004208031D60
:100FCA00E72FE82FA22E3E08840083138001080031
:100FDA000A128A116D220A128A11C700831320305D
:100FEA00840036300A128A117B220A128A1183017E
:060FFA000A128A11B32D5A
:08400000FF3FFF3FFF3FFF3FC0
:04400E00D420FF3F7C
:00000001FF
