:100000000A128A11F92F00308A000408840A820734
:1000100000347734773477342E3465346C34653477
:100020006334743472346F3453346F346D346534E4
:100030002E3463346F346D34003450346F34743480
:10004000203431343A3420342034203420342034E5
:100050004334503455343A340034233450344F341C
:1000600054342034203420342034203420342034BC
:10007000233443345034553400344C344334443402
:1000800020344C34693462347234613472347934DB
:10009000203466346F34723400344434653476343A
:1000A00065346C346F3470346534643420344234D5
:1000B0007934003465346C346534633474347234A8
:1000C0006F3453346F346D34653400344D345034F0
:1000D0004C344134423420345834433438340034BE
:100B7A008B178B168B150B178312031381010B111D
:100B8A00080000300A128A11F1250A128A1101306E
:100B9A000A128A11F1250A128A1108000A128A1108
:100BAA0081260A128A110A128A1152260A128A11F7
:100BBA00D82D0A128A1100283F30831203139F0589
:100BCA001F111F14831603139F121F129F130C1752
:100BDA00831203139F140800F300831203130811EE
:100BEA0073080A128A110B260A128A118312031336
:100BFA0088150B30F2006230F100F10B022EF20B75
:100C0A00022E00008312031388110800F000701CE2
:100C1A000F2E102E142E831203130816172E83126A
:100C2A0003130812F01C1A2E1B2E1D2E88161E2EB8
:100C3A008812701D212E222E242E0817252E081305
:100C4A00F01D282E292E2B2E88172C2E88130800EB
:100C5A00F700F501F601442E7508770784000A1299
:100C6A008A1103200A128A110A128A11B5260A1257
:100C7A008A110130F5070318F60A0030F6077508DD
:100C8A00770784000A128A1103200A128A11003A8D
:100C9A00031D502E512E312E08000A128A11C62524
:100CAA000A128A11F401F40A01300A128A11EE2694
:100CBA000A128A1115300A128A112D260A128A116D
:100CCA00F401F40A02300A128A11EE260A128A1173
:100CDA0025300A128A112D260A128A111530FD00B2
:100CEA004B30FC00BE30FB00FB0B792EFC0B792E3F
:100CFA00FD0B792E000008008316031789010814DA
:100D0A0083160313850183120313850183160313C4
:100D1A008801831203138801831603138112811138
:100D2A00F83081050430F0000030F1000A128A110F
:100D3A0040270A128A1101300A128A11BD250A12A5
:100D4A008A110130F0000030F1000A128A11E125FF
:100D5A000A128A110A128A119C270A128A11080099
:100D6A00F40074080F39F1007108F2007408F039C0
:100D7A00F1007108F3008312031308157308F100D8
:100D8A0004300310F10CFF3E031DC62E71080A122F
:100D9A008A110B260A128A118312031388151A3034
:100DAA00F100F10BD62E000083120313881172088A
:100DBA000A128A110B260A128A1183120313881542
:100DCA001A30F100F10BE72E000083120313881189
:100DDA000800F7007703031DF32EF42E172F74086B
:100DEA007F3EF5007508FA007A08F5000430031012
:100DFA00F50CFF3E031DFC2E7508F6007608F80078
:100E0A007A080F39F5007508F90078080A128A116C
:100E1A00F1250A128A1179080A128A11F1250A1291
:100E2A008A113F2F02307706031D1C2F1D2F3F2FDB
:100E3A007408BF3EF5007508FA007A08F500043018
:100E4A000310F50CFF3E031D252F7508F6007608E2
:100E5A00F8007A080F39F5007508F90078080A12BF
:100E6A008A11F1250A128A1179080A128A11F125C2
:100E7A000A128A110800083070067104031D462FF1
:100E8A00472F4B2F7030831603138F0404307006DC
:100E9A007104031D512F522F582F831603130F0865
:100EAA008F3960388F0070037104031D5D2F5E2F28
:100EBA00642F831603130F088F3940388F00F430DC
:100ECA007006031D6C2F7103031D6C2F6D2F732F7A
:100EDA00831603130F088F3930388F00FA307006E3
:100EEA007104031D792F7A2F802F831603130F089D
:100EFA008F3950388F007D3070067104031D862F9C
:100F0A00872F8D2F831603130F088F3910388F0000
:100F1A001F3070067104031D932F942F982F8F3062
:100F2A00831603138F05831603130F14080000306A
:100F3A000A128A110B260A128A113430F500F1308E
:100F4A00F400F40BA62FF50BA62FAB2F03300A12D1
:100F5A008A11F1250A128A110D30F500FB30F400CE
:100F6A00F40BB52FF50BB52FBA2F03300A128A11DD
:100F7A00F1250A128A111D30F5009130F400F40BA4
:100F8A00C42FF50BC42F03300A128A11F1250A1255
:100F9A008A1102300A128A11F1250A128A110230C4
:100FAA000A128A11F1250A128A1108300A128A11C4
:100FBA00F1250A128A1100300A128A11F1250A1241
:100FCA008A110C300A128A11F1250A128A1100308C
:100FDA000A128A11F1250A128A1106300A128A1196
:100FEA00F1250A128A11080083120313A001830152
:060FFA000A128A11D32D3A
:08400000FF3FFF3FFF3FFF3FC0
:04400E00D420FF3F7C
:00000001FF
