:060000000A128A11FB2F19
:100EA6000A128A1167270A128A11582F0A128A1102
:100EB60000288B170B108B15831603131614961424
:100EC6008113151495140800831603178901081455
:100ED6008316031385018701831203138701831683
:100EE6000313880183120313880103308316031347
:100EF6008600831203138601831603138112811160
:100F0600F83081058312031381010B1101300A1297
:100F16008A115C270A128A1103300A128A115C2789
:100F26000A128A110430F0000030F1000A128A1108
:100F36009F270A128A110800083070067104031DE3
:100F4600A52FA62FAA2F7030831603138F04043003
:100F560070067104031DB02FB12FB72F831603132C
:100F66000F088F3960388F0070037104031DBC2F82
:100F7600BD2FC32F831603130F088F3940388F00F8
:100F8600F4307006031DCB2F7103031DCB2FCC2F1E
:100F9600D22F831603130F088F3930388F00FA309B
:100FA60070067104031DD82FD92FDF2F8316031364
:100FB6000F088F3950388F007D3070067104031D7D
:100FC600E52FE62FEC2F831603130F088F39103801
:100FD6008F001F3070067104031DF22FF32FF72FB9
:100FE6008F30831603138F05831603130F1408001F
:0A0FF600F20183010A128A11532F41
:08400000FF3FFF3FFF3FFF3FC0
:04400E00D53FFF3F5C
:00000001FF
