:100000000A128A11F32F00308A000408840A82073A
:100010000034013400340A34003464340034E834E9
:1000200003341034273425342E34323464342034ED
:100030002034203425342E34323464343A34253498
:100040002E34323464343A3425342E343234643429
:100050000034533431343A342034203420342534BD
:100060002E34323464342F3425342E343234643414
:0C0070002F3425342E3432346434003434
:10051E0064008001840A0406031900340406902A3C
:10052E000A128A11B3220A128A11831603131114A6
:10053E0008000A128A11B3220A128A1183160313B3
:10054E00111508000A128A11B3220A128A117008B4
:10055E008312031393000800831603131419B82A89
:10056E00B92AB32A11081F39031DBE2ABF2AB32A7E
:10057E00080000300A128A110A230A128A11013069
:10058E000A128A110A230A128A110800F100F001D8
:10059E003A3071020318D42AD52ADD2A303071027E
:1005AE00031CDA2ADB2ADD2AF001F00A700C08009F
:1005BE00F200F101721CE42AE52AE92A7008FF0014
:1005CE007F08F1070310F00D0310F20C7208031DE3
:1005DE00F12AF22AE12A71080800F20083120313AD
:1005EE00071472080A128A1130240A128A11831211
:1005FE00031387141A30F100F10B032B0000831242
:10060E00031387100800F3008312031307107308F7
:10061E000A128A1130240A128A11831203138714C4
:10062E000B30F2006230F100F10B1B2BF20B1B2B87
:10063E0000008312031387100800F5007503031DD5
:10064E00292B2A2B342B74087F3EF60076080A12CB
:10065E008A110A230A128A11432B02307506031DD2
:10066E00392B3A2B432B7408BF3EF60076080A123C
:10067E008A110A230A128A110800F600F401F50104
:10068E00592B74087607F3007308840000080A12C9
:10069E008A11F4220A128A110130F4070318F50A9E
:1006AE000030F50774087607F3007308840083138F
:1006BE000008031D632B642B482B08000830F00044
:1006CE000030F1000A128A1103250A128A118316CC
:1006DE000317880189018316031386018030870072
:1006EE008801831203138601870188010030CB0035
:1006FE000130CA008630C900A030C8000A128A1123
:10070E00BE230A128A110A128A11B2240A128A11FF
:10071E0008000A128A11B3220A128A1183160313D1
:10072E0091150A128A11B3220A128A118312031327
:10073E001308F200F3017208F4007308F5000A12B0
:10074E008A11B3220A128A1170037104031DB02B91
:10075E00B12BB52B831603139112B82B83160313EB
:10076E00911611167508F1007408F0000800283073
:10077E008312031394008316031391018312031340
:10078E004808CC004908CD004A08CE004B08CF00DF
:10079E0002300310CC0DCD0DCE0DCF0DFF3E031D3F
:1007AE00D02B4F08F3004E08F2004D08F1004C0814
:1007BE00F0000030F7007A30F6001230F50000300D
:1007CE00F4000A128A115F250A128A117008FF3E80
:1007DE0083160313930094018715071608007708F4
:1007EE0078040319FB2BFC2B2B2CFB01FB0A0A2C88
:1007FE0001300310F70DF80DFF3E031D002C0130E4
:10080E00FF007F08FB07F81F0D2C0E2CFF2B78081E
:10081E007A02031D142C77087902031C172C182C4E
:10082E001E2C7708F9027808031CFA03FA0201302D
:10083E000310F80CF70CFF3E031D1F2C0130FB02BA
:10084E00031D2A2C2B2C0E2C7A08F8007908F700A1
:10085E000800F000701C342C352C392C8312031335
:10086E0008143C2C831203130810F01C3F2C402C50
:10087E00422C8814432C8810701D462C472C492C72
:10088E0008154A2C0811F01D4D2C4E2C502C881595
:10089E00512C8811701E542C552C572C0816582C80
:1008AE000812F01E5B2C5C2C5E2C88165F2C8812B6
:1008BE00701F622C632C652C0817662C0813F01F12
:1008CE00692C6A2C6C2C88176D2C88130800F40187
:1008DE00F501700871040319752C762CAD2CF601F8
:1008EE00F60A842C01300310F00DF10DFF3E031DAE
:1008FE007A2C0130FF007F08F607F11F872C882C19
:10090E00792C01300310F40DF50DFF3E031D892CDB
:10091E0071087302031D952C70087202031C982C2B
:10092E00992CA02C7008F2027108031CF303F30239
:10093E00741401300310F10CF00CFF3E031DA12CBA
:10094E000130F602031DAC2CAD2C882C7508F1007D
:10095E007408F000080000300A128A1130240A12BE
:10096E008A113430F500F130F400F40BBC2CF50B89
:10097E00BC2CC12C30300A128A110A230A128A1199
:10098E000D30F500FB30F400F40BCB2CF50BCB2C1B
:10099E00D02C30300A128A110A230A128A111D3005
:1009AE00F5009130F400F40BDA2CF50BDA2C303024
:1009BE000A128A110A230A128A1138300A128A116F
:1009CE000A230A128A1108300A128A110A230A12FD
:1009DE008A1101300A128A110A230A128A1106306C
:1009EE000A128A110A230A128A110C300A128A116B
:1009FE000A230A128A110800083070067104031DBA
:100A0E00092D0A2D0E2D7030831603138F0404301A
:100A1E0070067104031D142D152D1B2D8316031343
:100A2E000F088F3960388F0070037104031D202D5D
:100A3E00212D272D831603130F088F3940388F0071
:100A4E00F4307006031D2F2D7103031D2F2D302D35
:100A5E00362D831603130F088F3930388F00FA3076
:100A6E0070067104031D3C2D3D2D432D831603137B
:100A7E000F088F3950388F007D3070067104031DBA
:100A8E00492D4A2D502D831603130F088F39103818
:100A9E008F001F3070067104031D562D572D5B2DD0
:100AAE008F30831603138F05831603130F1408005C
:100ABE000030FC000030FB000030FA000030F9007E
:100ACE00730872047104700403196E2D6F2DBC2D02
:100ADE00FD01FD0A7F2D0130F8000310F00DF10D20
:100AEE00F20DF30DF80B742D0130FF007F08FD079A
:100AFE00F31F822D832D722D0130F8000310F90D96
:100B0E00FA0DFB0DFC0DF80B852D73087702031DF6
:100B1E009A2D72087602031D9A2D71087502031D17
:100B2E009A2D70087402031C9D2D9E2DAD2D7008FC
:100B3E00F4027108031C710FF5027208031C720F88
:100B4E00F6027308031C730FF702791401300310B9
:100B5E00F30CF20CF10CF00CFF3E031DAE2D013028
:100B6E00FD02031DBB2DBC2D832D7C08F3007B08DD
:100B7E00F2007A08F1007908F00008000A128A11D2
:100B8E0065230A128A110A128A1197220A128A11F1
:100B9E005030F0000030F1000A128A11A9220A1218
:100BAE008A11831203130608DB00DC015B08F000D8
:100BBE005C08F1000A128A11A9220A128A110A127D
:100BCE008A11A0220A128A11033083120313DD0048
:100BDE000830DC007630DB00DB0BF32DDC0BF32D65
:100BEE00DD0BF32D00000A128A1197220A128A11C8
:100BFE005130F0000030F1000A128A11A9220A12B7
:100C0E008A110030F000F1000A128A1190230A12A4
:100C1E008A11700883120313A6000A128A11A022E9
:100C2E000A128A11033083120313DD000830DC0030
:100C3E007630DB00DB0B212EDC0B212EDD0B212E83
:100C4E0000000130FF007F088312031386070A128B
:100C5E008A11C0220A128A11F401F40A01300A1212
:100C6E008A1124230A128A11213083120313C80019
:100C7E002008DB00DC015B08C9005C08CA00210803
:100C8E00DD00DE015D08CB005E08CC002208DF002F
:100C9E00E0015F08CD006008CE0038300A128A11DC
:100CAE00A2260A128A1138300A128A1144230A1215
:100CBE008A11F401F40A02300A128A1124230A124C
:100CCE008A110B3083120313C8002608DB00DC01E7
:100CDE005B08C9005C08CA002308DD00DE015D0860
:100CEE00CB005E08CC002408DF00E0015F08CD00D9
:100CFE006008CE002508E100E2016108CF0062081D
:100D0E00D00028300A128A11A2260A128A1128301F
:100D1E000A128A1144230A128A1182308312031393
:100D2E00DC00DD30DB00DB0B9A2EDC0B9A2ECA2D9D
:100D3E000A128A11002883120313D8004930D400F6
:100D4E00DE2F25305A060319AD2EAE2EB82E5808BA
:100D5E0084005A08831380000130FF007F08D807F3
:100D6E00DE2FD501480884000A128A1103200A12C8
:100D7E008A112E3A031DC42EC52EF82E0130FF0007
:100D8E007F08C807D901E72E831203135908F00014
:100D9E000A300A128A11DF220A128A1183120313F1
:100DAE00D900480884000A128A1103200A128A11F7
:100DBE00D03EFF007F08D9070130FF007F08C8072B
:100DCE00480884000A128A1103200A128A110A1294
:100DDE008A11CD220A128A110318F62EF72ECB2E67
:100DEE00F92ED901013083120313C807FF304807CB
:100DFE0084000A128A1103200A128A11DA00D10025
:100E0E00D2015208003A03190D2FDE2F5108003A75
:100E1E000319EE2F643A0319182F0D3A0319182FE0
:100E2E00DE2F5408840083130008D600840A0008BD
:100E3E00D7000230FF007F08D407D71F272F282F97
:100E4E00312F0330FF007F08D504D609D709D60A03
:100E5E000319D70A5908031D352F362F402F560870
:100E6E005704031D3B2F3C2F402F0130FF007F08FE
:100E7E00D907DA01DA0A5A08D1005107013E840077
:100E8E000A128A1103200A128A11D2000A128A113A
:100E9E0003200A128A11D30053085702031D592F3B
:100EAE005208560203185C2F5D2F5E2F682F0130FB
:100EBE00FF007F08DA0705305A06031D672F682FDB
:100ECE00422F5908D100D201D11BD2035208803AC9
:100EDE00803C031D742F51085A020318772F782F68
:100EEE00792F912F831203135908D100D201D11BF0
:100EFE00D2035208803AD30080305302031D892F4B
:100F0E005A08510203188C2F8D2F912F8312031321
:100F1E005A08D90083120313550803390319982F61
:100F2E00992FD52F580884002D308313800001305F
:100F3E00FF007F08D807D52F0A30F7000030F800E1
:100F4E005908D1005107013E84000A128A1103206C
:100F5E000A128A11F0000A128A1103200A128A114B
:100F6E00F1005708F3005608F2000A128A116E2497
:100F7E000A128A117108FA007008F9000A128A1111
:100F8E00F6230A128A117708303E83120313DA0011
:100F9E00580884005A08831380009E2FFF30FF00EC
:100FAE007F08D907590A031DDD2FDE2FA32F01302D
:100FBE00C807FF30480784000A128A1103200A125C
:100FCE008A11DA005A08031DED2FEE2FA82E5808AD
:100FDE00840083138001080083132030840048307E
:100FEE000A128A118F220A128A1183010A128A1199
:020FFE00C52DFF
:08400000FF3FFF3FFF3FFF3FC0
:04400E00D420FF3F7C
:00000001FF
