:060000000A128A11122809
:10000800FE00030E83120313AC000408AD000A08B7
:10001800AE007F08AF000A128A11802B0A128A11DB
:10002800152883134D3084005B300A128A152B245F
:100038000A128A11A0308400B0300A128A152B24C3
:100048000A128A1183010A128A112A280A128A11AD
:10005800BE270A128A110C3083120313C0000C3019
:10006800C1000C30C2000C30C3001730C4000C3083
:100078000A128A11B6240A128A110A128A154E2403
:100088000A128A11D03083120313BE000030BF0059
:100098000A128A156A240A128A110030831203137D
:1000A800BE00BF000A128A156A240A128A110A12AF
:1000B8008A1545240A128A11D13083120313BE000F
:1000C8000030BF000A128A156A240A128A11013008
:1000D80083120313B0000030B1000A128A1560259C
:1000E8000A128A118312031330080A128A15FA2495
:1000F8000A128A1183120313D3000130B0000030B2
:10010800B1000A128A1560250A128A118312031394
:1001180030080A128A15FA240A128A118312031364
:10012800D2000130B0000030B1000A128A156025F3
:100138000A128A118312031330080A128A15FA2444
:100148000A128A1183120313D1000130B000003063
:10015800B1000A128A1560250A128A118312031344
:1001680030080A128A15FA240A128A118312031314
:10017800CD000130B0000030B1000A128A156025A8
:100188000A128A118312031330080A128A15FA24F4
:100198000A128A1183120313CE000130B000003016
:1001A800B1000A128A1560250A128A1183120313F4
:1001B80030080A128A15FA240A128A1183120313C4
:1001C800CF000030B000B1000A128A1560250A126B
:1001D8008A118312031330080A128A15FA240A12A4
:1001E8008A1183120313D0000A128A1557240A129F
:1001F8008A11033083160313B2000830B100763039
:10020800B000B00B0529B10B0529B20B0529000078
:100218000A128A154E240A128A11513083120313C6
:10022800BE000030BF000A128A156A240A128A1119
:10023800003083120313B000B1000A128A1560253A
:100248000A128A11831203133008D9000A128A1578
:1002580057240A128A11033083160313B200083098
:10026800B1007630B000B00B3729B10B3729B20B8B
:10027800372900000A128A158E240A128A1183125D
:100288000313B401B40A01300A128A1519250A1297
:100298008A112B3083120313BC00A0300A128A1172
:1002A8002D220A128A11A0300A128A153B250A1239
:1002B8008A11063083120313B40001300A128A151A
:1002C80019250A128A110B3083120313BC004E0839
:1002D80083160313B000B101300883120313BD0065
:1002E80083160313310883120313BE004F088316C5
:1002F8000313B200B301320883120313BF0083163D
:100308000313330883120313C00050088316031322
:10031800B400B501340883120313C1008316031314
:10032800350883120313C200A0300A128A112D2245
:100338000A128A11A0300A128A153B250A128A115C
:1003480083120313B401B40A02300A128A1519255C
:100358000A128A11173083120313BC005908831636
:100368000313B000B101300883120313BD008316D4
:100378000313310883120313BE00A0300A128A1136
:100388002D220A128A11A0300A128A153B250A1258
:100398008A11073083120313B40002300A128A1537
:1003A80019250A128A111C3083120313BC00510844
:1003B80083160313B000B101300883120313BD0084
:1003C80083160313310883120313BE0052088316E1
:1003D8000313B200B301320883120313BF0083165C
:1003E8000313330883120313C0005308831603133F
:1003F800B400B501340883120313C1008316031334
:10040800350883120313C200A0300A128A112D2264
:100418000A128A11A0300A128A153B250A128A117B
:10042800823083160313B100DD30B000B00B1A2AF6
:10043800B10B1A2A0630831203135706031D252A07
:10044800262A272AD7015708850041280A128A1127
:10045800122883120313CA003D30C6006B2B2530C7
:100468004C060319382A392A432A4A0884004C08BA
:10047800831380000130FF007F08CA076B2BC70178
:100488003C0884000A128A1500200A128A112E3AA2
:10049800031D4F2A502A832A0130FF007F08BC071A
:1004A800CB01722A831203134B08B0000A300A12D8
:1004B8008A15AF240A128A1183120313CB003C0851
:1004C80084000A128A1500200A128A11D03EFF0001
:1004D8007F08CB070130FF007F08BC073C08840079
:1004E8000A128A1500200A128A110A128A159B24F8
:1004F8000A128A110318812A822A562A842ACB01D1
:10050800013083120313BC07FF303C0784000A1232
:100518008A1500200A128A11CC00C300C4014408BD
:10052800003A0319982A6B2B4308003A03197B2BCE
:10053800643A0319A32A0D3A0319A32A6B2B460818
:10054800840083130008C800840A0008C900023028
:10055800FF007F08C607C91FB22AB32ABC2A033086
:10056800FF007F08C704C809C909C80A0319C90ACE
:100578004B08031DC02AC12ACB2A48084904031D79
:10058800C62AC72ACB2A0130FF007F08CB07CC0137
:10059800CC0A4C08C3004307013E84000A128A159E
:1005A80000200A128A11C4000A128A1500200A12B1
:1005B8008A11C50045084902031DE42A4408480277
:1005C8000318E72AE82AE92AF32A0130FF007F08FE
:1005D800CC0705304C06031DF22AF32ACD2A4B0816
:1005E800C300C401C31BC4034408803A803C031DF4
:1005F800FF2A43084C020318022B032B042B1C2B45
:10060800831203134B08C300C401C31BC40344086B
:10061800803AC50080304502031D142B4C08430264
:100628000318172B182B1C2B831203134C08CB0011
:1006380083120313470803390319232B242B622B36
:100648004A0884002D30831380000130FF007F08A2
:10065800CA07622B0A30B7000030B8004B08C30045
:100668004307013E84000A128A1500200A128A11E3
:10067800B0000A128A1500200A128A11B10049082E
:10068800B3004808B2000A128A15B0260A128A1165
:10069800831203133108BA003008B9000A128A1508
:1006A80074260A128A11831203133708303ECC00CD
:1006B8004A0884004C0883138000292BFF30FF0070
:1006C8007F08CB074B0A031D6A2B6B2B2E2B01309F
:1006D800BC07FF303C0784000A128A1500200A1262
:1006E8008A11CC004C08031D7A2B7B2B332A4A082D
:1006F80084008313800108000B1C832B842BAB2CF4
:100708000618872B882B112CF52B5208A2005108AC
:10071800A3004E08A4004F08A5005008A6005308DF
:10072800013E0A128A116C250A128A11112C5208EC
:10073800013EA2005108A3004E08A4004F08A500DE
:100748005008A60053080A128A116C250A128A1149
:10075800112C5208A2005108013EA3004E08A40023
:100768004F08A5005008A60053080A128A116C25E4
:100778000A128A11112C5208A2005108A3004E082F
:10078800013EA4004F08A5005008A60053080A120D
:100798008A116C250A128A11112C5208A2005108DC
:1007A800A3004E08A4004F08013EA5005008A6006B
:1007B80053080A128A116C250A128A11112C520840
:1007C800A2005108A3004E08A4004F08A500500835
:1007D800013EA60053080A128A116C250A128A11D2
:1007E800112C5708AA00AB012B08003A0319FD2B5E
:1007F800112C2A08003A0319892B013A03199B2B5B
:10080800033A0319AD2B013A0319BF2B073A031911
:10081800D12B013A0319E32B112C831203138618E9
:10082800162C172CA02C842C5208A2005108A300C7
:100838004E08A4004F08A5005008A6005308FF3E24
:100848000A128A116C250A128A11A02C5208FF3E3E
:10085800A2005108A3004E08A4004F08A5005008A4
:10086800A60053080A128A116C250A128A11A02CB4
:100878005208A2005108FF3EA3004E08A4004F08EA
:10088800A5005008A60053080A128A116C250A12FE
:100898008A11A02C5208A2005108A3004E08FF3E5E
:1008A800A4004F08A5005008A60053080A128A1190
:1008B8006C250A128A11A02C5208A2005108A30024
:1008C8004E08A4004F08FF3EA5005008A600530894
:1008D8000A128A116C250A128A11A02C5208A20049
:1008E8005108A3004E08A4004F08A5005008FF3E79
:1008F800A60053080A128A116C250A128A11A02C24
:100908005708AA00AB012B08003A03198C2CA02C1D
:100918002A08003A0319182C013A03192A2C033A19
:1009280003193C2C013A03194E2C073A0319602C81
:10093800013A0319722CA02C831203130619A52C53
:10094800A62CAA2C0130FF007F08D7070B102F0810
:10095800FF002E088A002D0884002C0E8300FE0E4E
:100968007E0E090083120313C7000A128A154E244B
:100978000A128A11D03083120313BE000030BF0060
:100988000A128A156A240A128A1100308312031384
:10099800BE00BF000A128A156A240A128A1183123D
:1009A800031347080A128A15C5250A128A118312E9
:1009B8000313C500C6014508BE004608BF000A1259
:1009C8008A156A240A128A118312031340080A122C
:1009D8008A15C5250A128A1183120313C500C60198
:1009E8004508BE004608BF000A128A156A240A1282
:1009F8008A118312031341080A128A15C5250A129F
:100A08008A1183120313C500C6014508BE004608B3
:100A1800BF000A128A156A240A128A118312031364
:100A280042080A128A15C5250A128A11831203136D
:100A3800C500C6014508BE004608BF000A128A154F
:100A48006A240A128A118312031342080A128A15A9
:100A5800C5250A128A1183120313C500C601450869
:100A6800BE004608BF000A128A156A240A128A11B3
:100A78008312031343080A128A15C5250A128A111C
:100A880083120313C500C6014508BE004608BF000F
:100A98000A128A156A240A128A1183120313440857
:100AA8000A128A15C5250A128A1183120313C50072
:100AB800C6014508BE004608BF000A128A156A2406
:100AC8000A128A110A128A1557240A128A11080072
:100AD80083120313A9000A128A1533240A128A11F1
:100AE800D03083120313A0000030A1000A128A1527
:100AF80060240A128A11003083120313A000A10097
:100B08000A128A1560240A128A118312031329080B
:100B18000A128A1592250A128A1183120313A70052
:100B2800A8012708A0002808A1000A128A15602435
:100B38000A128A118312031322080A128A159225AF
:100B48000A128A1183120313A700A8012708A0001C
:100B58002808A1000A128A1560240A128A11831231
:100B6800031323080A128A1592250A128A1183127E
:100B78000313A700A8012708A0002808A1000A124B
:100B88008A1560240A128A118312031324080A1290
:100B98008A1592250A128A1183120313A700A80145
:100BA8002708A0002808A1000A128A1560240A1242
:100BB8008A118312031324080A128A1592250A122D
:100BC8008A1183120313A700A8012708A000280888
:100BD800A1000A128A1560240A128A1183120313CB
:100BE80025080A128A1592250A128A1183120313FC
:100BF800A700A8012708A0002808A1000A128A1542
:100C080060240A128A118312031326080A128A150D
:100C180092250A128A1183120313A700A801270834
:100C2800A0002808A1000A128A1560240A128A1155
:100C38000A128A153C240A128A1108008312031327
:100C4800B501B11F282E292E302EB009B109B00ADE
:100C58000319B10AB501B50AB31F332E342E3D2E40
:100C6800B209B309B20A0319B30A0130FF007F08B9
:100C7800B506B601B701300831040319442E452ED4
:100C88007C2EB401B40A532E01300310B00DB10DFF
:100C9800FF3E031D492E0130FF007F08B407B11F36
:100CA800562E572E482E01300310B60DB70DFF3EB5
:100CB800031D582E31083302031D642E30083202FA
:100CC800031C672E682E6F2E3008B2023108031CF1
:100CD800B303B302361401300310B10CB00CFF3E5D
:100CE800031D702E0130B402031D7B2E7C2E572E5F
:100CF80035080319802E812E862EB609B709B60A43
:100D08000319B70A3708B1003608B00008000030E8
:100D180083120313BC000030BB000030BA0000305F
:100D2800B900330832043104300403199C2E9D2E77
:100D3800EA2EBD01BD0AAD2E0130B8000310B00D7A
:100D4800B10DB20DB30DB80BA22E0130FF007F0814
:100D5800BD07B31FB02EB12EA02E0130B80003106E
:100D6800B90DBA0DBB0DBC0DB80BB32E3308370245
:100D7800031DC82E32083602031DC82E310835025D
:100D8800031DC82E30083402031CCB2ECC2EDB2EBC
:100D98003008B4023108031C310FB5023208031CB5
:100DA800320FB6023308031C330FB702391401306F
:100DB8000310B30CB20CB10CB00CFF3E031DDC2EBB
:100DC8000130BD02031DE92EEA2EB12E3C08B30006
:100DD8003B08B2003A08B1003908B0000800F50134
:100DE800F11FF72EF82EFF2EF009F109F00A03196A
:100DF800F10AF501F50AF31F022F032F0C2FF20950
:100E0800F309F20A0319F30A0130FF007F08F50617
:100E1800F601F701700871040319132F142F4B2FD3
:100E2800F401F40A222F01300310F00DF10DFF3EFA
:100E3800031D182F0130FF007F08F407F11F252F2D
:100E4800262F172F01300310F60DF70DFF3E031D57
:100E5800272F71087302031D332F70087202031CB9
:100E6800362F372F3E2F7008F2027108031CF30348
:100E7800F302761401300310F10CF00CFF3E031D51
:100E88003F2F0130F402031D4A2F4B2F262F7508E0
:100E980003194F2F502F552FF609F709F60A031992
:100EA800F70A7708F1007608F00008000830831286
:100EB800031330063104031D622F632F672F703030
:100EC800831603138F040430831230063104031D84
:100ED8006E2F6F2F752F831603130F088F39603805
:100EE8008F00831230033104031D7B2F7C2F822F48
:100EF800831603130F088F3940388F00F43083129C
:100F08003006031D8B2F3103031D8B2F8C2F922F3F
:100F1800831603130F088F3930388F00FA30831285
:100F280030063104031D992F9A2FA02F831603131F
:100F38000F088F3950388F007D3083123006310406
:100F4800031DA72FA82FAE2F831603130F088F3961
:100F580010388F001F30831230063104031DB52F5F
:100F6800B62FBA2F8F30831603138F0583160313FA
:100F78000F140800083083120313B0000030B100CA
:100F88000A128A115A270A128A118316031788012E
:100F98008901831603138501073086008030870096
:100FA80088018312031385018601870188010030B7
:100FB800C1000130C0008630BF00A030BE000A1258
:100FC8008A15FE250A128A110A128A15F6260A12AD
:100FD8008A118B170B170B108B1583160313161416
:0E0FE80096141615811315149514151508008E
:1010000008308A000408840A82070034013400345E
:101010000A34003464340034E834033410342734A0
:1010200025342E34323464342F3425342E34323483
:1010300064342F343234303425342E343234643432
:10104000003425342E34323464343A3425342E348A
:10105000323464343A3425342E3432346434003437
:08106000533431343A340034FA
:1018560064008001840A04060319003404062C2C53
:101866000A128A1574240A128A1583160313111490
:1018760008000A128A1574240A128A15831603139D
:10188600111508000A128A1581240A128A15831670
:101896000313911408000A128A1581240A128A1564
:1018A60083160313111408000A128A1581240A12DA
:1018B6008A1583160313111508000A128A15742453
:1018C6000A128A15831203132008930008000A12CD
:1018D6008A1581240A128A15831203133E0893007F
:1018E6000800831603131419792C7A2C742C11080A
:1018F6001F39031D7F2C802C742C080083160313BC
:101906001419862C872C812C11081F39031D8C2C49
:101916008D2C812C080000300A128A15DE240A124A
:101926008A1501300A128A15DE240A128A15080061
:1019360083120313B100B0013A3031020318A42C0C
:10194600A52CAD2C30303102031CAA2CAB2CAD2CAF
:10195600B001B00A300C080083120313B200B101C3
:10196600321CB62CB72CBB2C3008FF007F08B10701
:101976000310B00D0310B20C3208031DC32CC42C87
:10198600B32C3108080083120313B200071432087F
:101996000A128A1538260A128A1583120313871427
:1019A600193083120313B100B10BD72CDA2C831232
:1019B60003138710080083120313B30007103308BC
:1019C6000A128A1538260A128A15831203138714F7
:1019D6000B3083120313B2006130B100B10BF12C4E
:1019E600B20BF12CF62C8312031387100800831216
:1019F6000313B7003708B30004300310B30CFF3EDF
:101A0600031D002D33080F39B40037080F39B50010
:101A16000A30B00034080A128A15AF240A128A1551
:101A2600831203133507B600360808008312031322
:101A3600B5003503031D202D212D2B2D34087F3EA7
:101A4600B60036080A128A15DE240A128A153A2DBD
:101A560002303506031D302D312D3A2D3408BF3E98
:101A6600B60036080A128A15DE240A128A150800FC
:101A760083120313B600B401B501542D340836079A
:101A8600B3003308840000080A128A15C6240A1215
:101A96008A15013083120313B4070318B50A003000
:101AA600B50734083607B3003308840083130008EB
:101AB600031D5E2D5F2D412D08000A128A15812413
:101AC6000A128A158316031391150A128A158124A0
:101AD6000A128A15831203131308B200B3013208DF
:101AE600B4003308B5000A128A1581240A128A1531
:101AF6008312031330033104031D822D832D872D9A
:101B06008316031391128A2D831603139116111649
:101B1600831203133508B1003408B0000800FD0035
:101B26000A30F0000030F1007D08F800F90178086D
:101B3600F2007908F3000A128A11F3260A128A15AE
:101B46007008FA000A30F0000030F1007D08F80055
:101B5600F9017808F2007908F3000A128A154C2771
:101B66000A128A157008FB007A08F8000330031081
:101B7600F80DFF3E031DBA2D0310780D7B04FC0003
:101B86007C08080083120313BD000A30B000003041
:101B9600B1003D08B800B9013808B2003908B300F1
:101BA6000A128A1122260A128A1583120313300892
:101BB600BA000A30B0000030B1003D08B800B901E3
:101BC6003808B2003908B3000A128A15A5270A1286
:101BD6008A15831203133008BB003A08B800033095
:101BE6000310B80DFF3E031DF32D0310380D3B0403
:101BF600BC003C08080028308312031394008316A7
:101C060003139101831203133E08C2003F08C30069
:101C16004008C4004108C50002300310C20DC30DC0
:101C2600C40DC50DFF3E031D102E4508B300440824
:101C3600B2004308B1004208B0000030B7007A3065
:101C4600B6001230B5000030B4000A128A118B2695
:101C56000A128A15831203133008FF3E83160313F4
:101C66009300940187150716080083120313B0002A
:101C7600301C3E2E3F2E412E0814422E0810B01C5A
:101C8600452E462E482E8814492E8810301D4C2E7F
:101C96004D2E4F2E0815502E0811B01D532E542EC2
:101CA600562E8815572E8811301E5A2E5B2E5D2E05
:101CB60008165E2E0812B01E612E622E642E88163D
:101CC600652E8812301F682E692E6B2E08176C2E13
:101CD6000813B01F6F2E702E722E8817732E88135E
:101CE6000800831203133708380403197B2E7C2E51
:101CF600AB2EBB01BB0A8A2E01300310B70DB80DFF
:101D0600FF3E031D802E0130FF007F08BB07B81F72
:101D16008D2E8E2E7F2E38083A02031D942E3708FC
:101D26003902031C972E982E9E2E3708B9023808C2
:101D3600031CBA03BA0201300310B80CB70CFF3EFD
:101D4600031D9F2E0130BB02031DAA2EAB2E8E2E25
:101D56003A08B8003908B700080083120313B40123
:101D6600B501300831040319B92EBA2EF12EB60189
:101D7600B60AC82E01300310B00DB10DFF3E031D8B
:101D8600BE2E0130FF007F08B607B11FCB2ECC2E2A
:101D9600BD2E01300310B40DB50DFF3E031DCD2E33
:101DA60031083302031DD92E30083202031CDC2E03
:101DB600DD2EE42E3008B2023108031CB303B30251
:101DC600341401300310B10CB00CFF3E031DE52E98
:101DD6000130B602031DF02EF12ECC2E3508B100CF
:101DE6003408B000080000300A128A1538260A1294
:101DF6008A15343083120313B500F130B400B40BE6
:101E0600022FB50B022F30300A128A15DE240A1271
:101E16008A150D3083120313B500FB30B400B40BE2
:101E2600122FB50B122F30300A128A15DE240A1231
:101E36008A151D3083120313B5009030B400B40B1D
:101E4600222FB50B222F000030300A128A15DE240D
:101E56000A128A1538300A128A15DE240A128A15E1
:101E660008300A128A15DE240A128A1501300A126F
:101E76008A15DE240A128A1506300A128A15DE240D
:101E86000A128A150C300A128A15DE240A128A15DD
:101E96000800F501F31F502F512F582FF209F309AF
:101EA600F20A0319F30AF501F50AF11F5B2F5C2FFD
:101EB600612FF009F109F00A0319F10A700871049B
:101EC6000319662F672F962FF401F40A752F013038
:101ED6000310F00DF10DFF3E031D6B2F0130FF00C7
:101EE6007F08F407F11F782F792F6A2F7108730284
:101EF600031D7F2F70087202031C822F832F892FE8
:101F06007008F2027108031CF303F3020130031098
:101F1600F10CF00CFF3E031D8A2F0130F402031D65
:101F2600952F962F792F750803199A2F9B2FA02F7F
:101F3600F209F309F20A0319F30A7308F1007208A9
:101F4600F000080083120313B501B31FAB2FAC2FAB
:101F5600B32FB209B309B20A0319B30AB501B50A18
:101F6600B11FB62FB72FBC2FB009B109B00A03199C
:101F7600B10A300831040319C12FC22FF12FB40161
:101F8600B40AD02F01300310B00DB10DFF3E031D72
:101F9600C62F0130FF007F08B407B11FD32FD42FFF
:101FA600C52F31083302031DDA2F30083202031C15
:101FB600DD2FDE2FE42F3008B2023108031CB303F5
:101FC600B30201300310B10CB00CFF3E031DE52F28
:101FD6000130B402031DF02FF12FD42F3508031959
:101FE600F52FF62FFB2FB209B309B20A0319B30A6C
:0A1FF6003308B1003208B000080003
:08400000FF3FFF3FFF3FFF3FC0
:04400E00D420FF3F7C
:00000001FF
