:060000000A128A110E280D
:10000800FE00030EF0000A08F1007F08F2000A1251
:100018008A11752D0A128A111128F901FA01831320
:100028003E30840055300A128A1120260A128A119D
:1000380083010A128A11732983120313B500283029
:10004800B1005E292530370603192B282C283628BD
:10005800350884003708831380000130FF007F08CB
:10006800B5075E29B201270884000A128A11CE2436
:100078000A128A112E3A031D422843287628013095
:10008800FF007F08A707B601652883120313360807
:10009800F3000A300A128A11C3250A128A11831240
:1000A8000313B600270884000A128A11CE240A1204
:1000B8008A11D03EFF007F08B6070130FF007F0895
:1000C800A707270884000A128A11CE240A128A1167
:1000D8000A128A11D8250A128A1103187428752859
:1000E80049287728B601013083120313A707FF3088
:1000F800270784000A128A11CE240A128A11B7002F
:10010800AE00AF012F08003A03198B285E292E088C
:10011800003A03196E29643A031996280D3A03190F
:1001280096285E293108840083130008B300840AE6
:100138000008B4000230FF007F08B107B41FA528EB
:10014800A628AF280330FF007F08B204B309B4091A
:10015800B30A0319B40A3608031DB328B428BE2805
:1001680033083404031DB928BA28BE280130FF001B
:100178007F08B607B701B70A3708AE002E07013E59
:1001880084000A128A11CE240A128A11AF000A12B8
:100198008A11CE240A128A11B00030083402031DD5
:1001A800D7282F0833020318DA28DB28DC28E628AA
:1001B8000130FF007F08B70705303706031DE52823
:1001C800E628C0283608AE00AF01AE1BAF032F08E3
:1001D800803A803C031DF2282E0837020318F528C0
:1001E800F628F7280F29831203133608AE00AF014B
:1001F800AE1BAF032F08803AB00080303002031DD9
:10020800072937082E0203180A290B290F298312F8
:1002180003133708B600831203133208033903198E
:10022800162917295529350884002D308313800095
:100238000130FF007F08B50755290A30A3000030B8
:10024800A4003608AE002E07013E84000A128A1167
:10025800CE240A128A11F3000A128A11CE240A1235
:100268008A11F4003408F6003308F5000A128A11DE
:100278009B230A128A11740883120313A6007308B9
:10028800A5000A128A111F240A128A118312031365
:100298002308303EB70035088400370883138000F0
:1002A8001C29FF30FF007F08B607360A031D5D29A9
:1002B8005E2921290130A707FF30270784000A1289
:1002C8008A11CE240A128A11B7003708031D6D2936
:1002D8006E292628350884008313800108000A1235
:1002E8008A1195240A128A110A128A1117260A12EB
:1002F8008A11D130F3000030F4000A128A11042662
:100308000A128A110030F300F4000A128A11042636
:100318000A128A110030F300F4000A128A1100252B
:100328000A128A1173088312031385000508BE0098
:100338000A128A110E260A128A1103308312031335
:10034800BA000830B9007630B800B80BA929B90B43
:10035800A929BA0BA92900000A128A1117260A121C
:100368008A115130F3000030F4000A128A11042671
:100378000A128A110030F300F4000A128A110025CB
:100388000A128A11730883120313C4000A128A110D
:100398000E260A128A11033083120313BA0008309A
:1003A800B9007630B800B80BD729B90BD729BA0BE2
:1003B800D7290000831203133E0885000A128A1108
:1003C800EA250A128A11F701F70A01300A128A117E
:1003D80053250A128A11293083120313A7004530C6
:1003E8000A128A1120200A128A1145300A128A112B
:1003F8002E250A128A110830F70001300A128A11D4
:1004080053250A128A110B3083120313A7004108DF
:10041800B800B9013808A8003908A9004208BA008C
:10042800BB013A08AA003B08AB004308BC00BD0169
:100438003C08AC003D08AD0045300A128A11202066
:100448000A128A1145300A128A112E250A128A11B7
:10045800F701F70A02300A128A1153250A128A1183
:10046800153083120313A7004408B800B9013808EF
:10047800A8003908A90045300A128A1120200A125A
:100488008A1145300A128A112E250A128A1108305B
:10049800F70002300A128A1153250A128A111A30FB
:1004A80083120313A7003E08B800B9013808A80052
:1004B8003908A9003F08BA00BB013A08AA003B085E
:1004C800AB004008BC00BD013C08AC003D08AD00D5
:1004D80045300A128A1120200A128A1145300A1260
:1004E8008A112E250A128A11823083120313B90049
:1004F800DD30B800B80B7E2AB90B7E2A78290A129B
:100508008A110E280030F7000030F6000030F500A0
:100518000030F4008312031323082204210420046A
:100528000319972A982AE52AF801F80AA82A013017
:10053800F3000310A00DA10DA20DA30DF30B9D2A2E
:100548000130FF007F08F807A31FAB2AAC2A9B2ABB
:100558000130F3000310F40DF50DF60DF70DF30B54
:10056800AE2A23082702031DC32A22082602031DD8
:10057800C32A21082502031DC32A20082402031CBC
:10058800C62AC72AD62A2008A4022108031C210F3C
:10059800A5022208031C220FA6022308031C230F0E
:1005A800A702741401300310A30CA20CA10CA00C18
:1005B800FF3E031DD72A0130F802031DE42AE52A6D
:1005C800AC2A7708A3007608A2007508A100740871
:1005D800A0000800083073067404031DF42AF52AE5
:1005E800F92A7030831603138F04043073067404D9
:1005F800031DFF2A002B062B831603130F088F39C0
:1006080060388F0073037404031D0B2B0C2B122B03
:10061800831603130F088F3940388F00F4307306A0
:10062800031D1A2B7403031D1A2B1B2B212B831656
:1006380003130F088F3930388F00FA3073067404AB
:10064800031D272B282B2E2B831603130F088F39F6
:1006580050388F007D3073067404031D342B352BFE
:100668003B2B831603130F088F3910388F001F3068
:1006780073067404031D412B422B462B8F308316BF
:1006880003138F05831603130F14080000300A1292
:100698008A11E1230A128A113430F800F130F70088
:1006A800F70B542BF80B542B592B30300A128A11A4
:1006B80093250A128A110D30F800FB30F700F70B6A
:1006C800632BF80B632B682B30300A128A119325A1
:1006D8000A128A111D30F8009130F700F70B722BBF
:1006E800F80B722B30300A128A1193250A128A11DC
:1006F80038300A128A1193250A128A1108300A1210
:100708008A1193250A128A1101300A128A11932537
:100718000A128A1106300A128A1193250A128A11BE
:100728000C300A128A1193250A128A1108008312C2
:100738000313A101A201730874040319A42BA52BA8
:10074800DC2BA001A00AB32B01300310F30DF40D2C
:10075800FF3E031DA92B0130FF007F08A007F41FEF
:10076800B62BB72BA82B01300310A10DA20DFF3E0D
:10077800031DB82B74087602031DC42B7308750279
:10078800031CC72BC82BCF2B7308F5027408031C56
:10079800F603F602211401300310F40CF30CFF3EAB
:1007A800031DD02B0130A002031DDB2BDC2BB72B44
:1007B8002208F4002108F3000800F300731CE52B5D
:1007C800E62BEA2B831203130814ED2B8312031371
:1007D8000810F31CF02BF12BF32B8814F42B881042
:1007E800731DF72BF82BFA2B0815FB2B0811F31D9B
:1007F800FE2BFF2B012C8815022C8811731E052C4B
:10080800062C082C0816092C0812F31E0C2C0D2C8B
:100818000F2C8816102C8812731F132C142C162CCE
:100828000817172C0813F31F1A2C1B2C1D2C8817BC
:100838001E2C8813080083120313230824040319A9
:10084800262C272C562CF701F70A352C01300310DB
:10085800A30DA40DFF3E031D2B2C0130FF007F08C4
:10086800F707A41F382C392C2A2C24082602031D2C
:100878003F2C23082502031C422C432C492C230817
:10088800A5022408031CA603A60201300310A40C29
:10089800A30CFF3E031D4A2C0130F702031D552C03
:1008A800562C392C2608A4002508A3000800283057
:1008B8008312031394008316031391018312031305
:1008C8002808AC002908AD002A08AE002B08AF00A4
:1008D80002300310AC0DAD0DAE0DAF0DFF3E031D84
:1008E8006D2C2F08A3002E08A2002D08A1002C08AB
:1008F800A0000030A7007A30A6001230A500003012
:10090800A4000A128A1186220A128A11831203137A
:100918002008FF3E831603139300940187150716DA
:1009280008000830F3000030F4000A128A11EE22A1
:100938000A128A1183160317880189018316031383
:1009480085010330860080308700880183120313F5
:1009580085018601870188010030AB000130AA00BB
:100968008630A900A030A8000A128A115B240A1256
:100978008A110A128A114A230A128A118B170B1735
:100988000B108B1583160313161496148113151464
:100998009514080004308A000408840A8207003489
:1009A800013400340A34003464340034E834033445
:1009B8001034273425342E34323464342F3425341B
:1009C8002E34323464342F3425342E3432346434A3
:1009D800003425342E34323464343A3425342E34F9
:1009E800323464343A3425342E34323464340034A6
:1009F800533431343A3400340A128A11F7250A1272
:100A08008A118316031391150A128A11F7250A12FF
:100A18008A11831203131308F500F6017508F7000D
:100A28007608F8000A128A11F7250A128A11730348
:100A38007404031D202D212D252D831603139112D7
:100A4800282D83160313911611167808F4007708D9
:100A5800F300080083120313A200A001A101472D8F
:100A680020082207F6007608840000080A128A1176
:100A7800AD250A128A11013083120313A007031847
:100A8800A10A0030A10720082207F6007608840092
:100A980083130008031D512D522D342D0800831295
:100AA8000313A0002003031D5A2D5B2D652D770825
:100AB8007F3EA10021080A128A1193250A128A1181
:100AC800742D02302006031D6A2D6B2D742D7708B6
:100AD800BF3EA10021080A128A1193250A128A1121
:100AE80008000B1C782D792D8A2D83120313061804
:100AF8007E2D7F2D832D0130FF007F08F907861892
:100B0800862D872D892D0130F9020B107208FF0000
:100B180071088A00700E8300FE0E7E0E0900F60032
:100B280083120313071076080A128A11E1230A12A6
:100B38008A118312031387140B30F5006230F40016
:100B4800F40BA42DF50BA42D0000831203138710BA
:100B58000800F50083120313071475080A128A1196
:100B6800E1230A128A118312031387141A30F4003E
:100B7800F40BBC2D00008312031387100800F50046
:100B8800F401751CC82DC92DCD2D7308FF007F08F1
:100B9800F4070310F30D0310F50C7508031DD52D8C
:100BA800D62DC52D74080800F400F3013A307402FC
:100BB8000318DF2DE02DE82D30307402031CE52DDD
:100BC800E62DE82DF301F30A730C080000300A1231
:100BD8008A1193250A128A1101300A128A11932563
:100BE8000A128A110800831603131419FC2DFD2D0F
:100BF800F72D11081F39031D022E032EF72D0800AB
:100C08000A128A11F7250A128A117308831203132C
:100C1800930008000A128A11F7250A128A1183160E
:100C28000313111508000A128A11F7250A128A11EE
:100C3800831603131114080064008001840A040653
:080C4800031900340406212EFB
:08400000FF3FFF3FFF3FFF3FC0
:04400E00D420FF3F7C
:00000001FF
