:060000000A128A110E280D
:10000800FE00030EF0000A08F1007F08F2000A1251
:100018008A15E22F0A128A111128F801F901FA014A
:1000280083133E30840058300A128A155E270A125C
:100038008A1183010A128A1121280A128A116E264E
:100048000A128A110C3083120313AC000C30AD0075
:100058000C30AE000C30AF001730B0000C300A1274
:100068008A111E230A128A110A128A156F270A1288
:100078008A11D03083120313AA000030AB000A1291
:100088008A1581270A128A11003083120313AA00E5
:10009800AB000A128A1581270A128A110A128A15D8
:1000A80066270A128A11D13083120313AA0000307E
:1000B800AB000A128A1581270A128A110130F3004F
:1000C8000030F4000A128A1150270A128A117308A4
:1000D8000A128A11C7270A128A1183120313C4004D
:1000E8000130F3000030F4000A128A1150270A1276
:1000F8008A1173080A128A11C7270A128A118312F1
:100108000313C3000130F3000030F4000A128A110F
:1001180050270A128A1173080A128A11C7270A126D
:100128008A1183120313C2000130F3000030F40077
:100138000A128A1150270A128A1173080A128A11A0
:10014800C7270A128A1183120313BE000130F30075
:100158000030F4000A128A1150270A128A11730813
:100168000A128A11C7270A128A1183120313BF00C1
:100178000130F3000030F4000A128A1150270A12E5
:100188008A1173080A128A11C7270A128A11831260
:100198000313C0000030F300F4000A128A1150273C
:1001A8000A128A1173080A128A11C7270A128A11B9
:1001B80083120313C1000A128A1578270A128A11BA
:1001C800033083120313BA000830B9007630B80040
:1001D800B80BEC28B90BEC28BA0BEC2800000A1273
:1001E8008A156F270A128A11513083120313AA0045
:1001F8000030AB000A128A1581270A128A110030D2
:10020800F300F4000A128A1150270A128A1173089F
:1002180083120313C7000A128A1578270A128A1153
:10022800033083120313BA000830B9007630B800DF
:10023800B80B1C29B90B1C29BA0B1C2900000A127F
:100248008A1598270A128A11F701F70A01300A124B
:100258008A11A5270A128A112B3083120313A700CB
:1002680048300A128A11CB210A128A1148300A1220
:100278008A1180270A128A110630F70001300A1203
:100288008A11A5270A128A110B3083120313A700BB
:100298003F08B800B9013808A8003908A900400883
:1002A800BA00BB013A08AA003B08AB004108BC00F1
:1002B800BD013C08AC003D08AD0048300A128A1167
:1002C800CB210A128A1148300A128A1180270A1291
:1002D8008A11F701F70A02300A128A11A5270A12B1
:1002E8008A11173083120313A7004708B800B90111
:1002F8003808A8003908A90048300A128A11CB2109
:100308000A128A1148300A128A1180270A128A11A1
:100318000730F70002300A128A11A5270A128A113B
:100328001C3083120313A7004208B800B90138082B
:10033800A8003908A9004308BA00BB013A08AA0076
:100348003B08AB004408BC00BD013C08AC003D08BC
:10035800AD0048300A128A11CB210A128A1148309E
:100368000A128A1180270A128A1182308312031313
:10037800B900DD30B800B80BBF29B90BBF2983120B
:1003880003134608850038280A128A110E2883129A
:100398000313B5002830B100092B2530370603199F
:1003A800D629D729E1293508840037088313800026
:1003B8000130FF007F08B507092BB2012708840028
:1003C8000A128A111C270A128A112E3A031DED29D6
:1003D800EE29212A0130FF007F08A707B601102A5D
:1003E800831203133608F3000A300A128A15B72756
:1003F8000A128A1183120313B600270884000A120E
:100408008A111C270A128A11D03EFF007F08B607FE
:100418000130FF007F08A707270884000A128A1105
:100428001C270A128A110A128A15A5270A128A118C
:1004380003181F2A202AF429222AB6010130831220
:100448000313A707FF30270784000A128A111C2705
:100458000A128A11B700AE00AF012F08003A03193B
:10046800362A092B2E08003A0319192B643A031966
:10047800412A0D3A0319412A092B310884008313B4
:100488000008B300840A0008B4000230FF007F08A7
:10049800B107B41F502A512A5A2A0330FF007F0897
:1004A800B204B309B409B30A0319B40A3608031D20
:1004B8005E2A5F2A692A33083404031D642A652AE0
:1004C800692A0130FF007F08B607B701B70A370865
:1004D800AE002E07013E84000A128A111C270A1258
:1004E8008A11AF000A128A111C270A128A11B00059
:1004F80030083402031D822A2F0833020318852A84
:10050800862A872A912A0130FF007F08B70705301D
:100518003706031D902A912A6B2A3608AE00AF01D0
:10052800AE1BAF032F08803A803C031D9D2A2E087E
:1005380037020318A02AA12AA22ABA2A831203136F
:100548003608AE00AF01AE1BAF032F08803AB000EB
:1005580080303002031DB22A37082E020318B52A4C
:10056800B62ABA2A831203133708B6008312031374
:10057800320803390319C12AC22A002B350884001E
:100588002D30831380000130FF007F08B507002B52
:100598000A30A3000030A4003608AE002E07013E42
:1005A80084000A128A111C270A128A11F3000A12FF
:1005B8008A111C270A128A11F4003408F60033083D
:1005C800F5000A128A11AE250A128A1174088312DC
:1005D8000313A6007308A5000A128A1132260A120C
:1005E8008A11831203132308303EB70035088400AC
:1005F800370883138000C72AFF30FF007F08B6073B
:10060800360A031D082B092BCC2A0130A707FF3017
:10061800270784000A128A111C270A128A11B700B8
:100628003708031D182B192BD1293508840083138B
:1006380080010800F7000A128A156F270A128A112A
:10064800D03083120313AA000030AB000A128A15B7
:1006580081270A128A11003083120313AA00AB0003
:100668000A128A1581270A128A1177080A128A1132
:10067800E3260A128A1183120313B100B20131086A
:10068800AA003208AB000A128A1581270A128A11B9
:10069800831203132C080A128A11E3260A128A11FC
:1006A80083120313B100B2013108AA003208AB006B
:1006B8000A128A1581270A128A11831203132D0838
:1006C8000A128A11E3260A128A1183120313B1004F
:1006D800B2013108AA003208AB000A128A15812734
:1006E8000A128A11831203132E080A128A11E326AA
:1006F8000A128A1183120313B100B2013108AA0049
:100708003208AB000A128A1581270A128A1183124D
:1007180003132E080A128A11E3260A128A11831279
:100728000313B100B2013108AA003208AB000A1263
:100738008A1581270A128A11831203132F080A12B5
:100748008A11E3260A128A1183120313B100B20137
:100758003108AA003208AB000A128A1581270A124A
:100768008A118312031330080A128A11E3260A1227
:100778008A1183120313B100B2013108AA003208AA
:10078800AB000A128A1581270A128A110A128A15E1
:1007980078270A128A11080083120313A101F41F93
:1007A800D62BD72BDE2BF309F409F30A0319F40A25
:1007B800A101A10AF61FE12BE22BEB2BF509F609A3
:1007C800F50A0319F60A0130FF007F08A106A20105
:1007D800A301730874040319F22BF32B2A2CA0012C
:1007E800A00A012C01300310F30DF40DFF3E031D88
:1007F800F72B0130FF007F08A007F41F042C052CFD
:10080800F62B01300310A20DA30DFF3E031D062C8D
:1008180074087602031D122C73087502031C152C2C
:10082800162C1D2C7308F5027408031CF603F60237
:10083800221401300310F40CF30CFF3E031D1E2C90
:100848000130A002031D292C2A2C052C210803198C
:100858002E2C2F2C342CA209A309A20A0319A30AAF
:100868002308F4002208F300080000308312031361
:10087800AB000030AA000030A9000030A80023080F
:1008880022042104200403194A2C4B2C982CAC0177
:10089800AC0A5B2C0130F3000310A00DA10DA20DD2
:1008A800A30DF30B502C0130FF007F08AC07A31FEA
:1008B8005E2C5F2C4E2C0130F3000310A80DA90DFF
:1008C800AA0DAB0DF30B612C23082702031D762C10
:1008D80022082602031D762C21082502031D762CEA
:1008E80020082402031C792C7A2C892C2008A402C5
:1008F8002108031C210FA5022208031C220FA602AF
:100908002308031C230FA702281401300310A30C8B
:10091800A20CA10CA00CFF3E031D8A2C0130AC02D6
:10092800031D972C982C5F2C2B08A3002A08A200E3
:100938002908A1002808A0000800083073067404DC
:10094800031DA72CA82CAC2C7030831603138F041E
:10095800043073067404031DB22CB32CB92C83160F
:1009680003130F088F3960388F0073037404031D55
:10097800BE2CBF2CC52C831603130F088F394038A3
:100988008F00F4307306031DCD2C7403031DCD2C8A
:10099800CE2CD42C831603130F088F3930388F00D0
:1009A800FA3073067404031DDA2CDB2CE12C831651
:1009B80003130F088F3950388F007D307306740485
:1009C800031DE72CE82CEE2C831603130F088F3930
:1009D80010388F001F3073067404031DF42CF52C97
:1009E800F92C8F30831603138F05831603130F1406
:1009F800080083120313A101F61F032D042D0B2DEC
:100A0800F509F609F50A0319F60AA101A10AF41F66
:100A18000E2D0F2D142DF309F409F30A0319F40A06
:100A2800730874040319192D1A2D492DA001A00A61
:100A3800282D01300310F30DF40DFF3E031D1E2D6C
:100A48000130FF007F08A007F41F2B2D2C2D1D2D32
:100A580074087602031D322D73087502031C352DA8
:100A6800362D3C2D7308F5027408031CF603F602B4
:100A780001300310F40CF30CFF3E031D3D2D013033
:100A8800A002031D482D492D2C2D210803194D2D99
:100A98004E2D532DF509F609F50A0319F60A7608BD
:100AA800F4007508F300080000300A128A11F425D2
:100AB8000A128A11343083120313A100F130A00006
:100AC800A00B642DA10B642D30300A128A11E62781
:100AD8000A128A110D3083120313A100FB30A00003
:100AE800A00B742DA10B742D30300A128A11E62741
:100AF8000A128A111D3083120313A1009030A0003E
:100B0800A00B842DA10B842D000030300A128A110D
:100B1800E6270A128A1138300A128A11E6270A12C1
:100B28008A1108300A128A11E6270A128A1101303E
:100B38000A128A11E6270A128A1106300A128A1145
:100B4800E6270A128A110C300A128A11E6270A12BD
:100B58008A11080083120313A101A2017308740407
:100B68000319B72DB82DEF2DA001A00AC62D01300D
:100B78000310F30DF40DFF3E031DBC2D0130FF00E3
:100B88007F08A007F41FC92DCA2DBB2D0130031003
:100B9800A10DA20DFF3E031DCB2D74087602031D87
:100BA800D72D73087502031CDA2DDB2DE22D73088F
:100BB800F5027408031CF603F60221140130031031
:100BC800F40CF30CFF3E031DE32D0130A002031DBE
:100BD800EE2DEF2DCA2D2208F4002108F30008009D
:100BE800F300731CF82DF92DFD2D8312031308143F
:100BF800002E831203130810F31C032E042E062E56
:100C08008814072E8810731D0A2E0B2E0D2E08151A
:100C18000E2E0811F31D112E122E142E8815152EC6
:100C28008811731E182E192E1B2E08161C2E08123A
:100C3800F31E1F2E202E222E8816232E8812731F95
:100C4800262E272E292E08172A2E0813F31F2D2E9D
:100C58002E2E302E8817312E881308008312031386
:100C6800230824040319392E3A2E692EF701F70AAE
:100C7800482E01300310A30DA40DFF3E031D3E2E88
:100C88000130FF007F08F707A41F4B2E4C2E3D2E86
:100C980024082602031D522E23082502031C552E64
:100CA800562E5C2E2308A5022408031CA603A602C0
:100CB80001300310A40CA30CFF3E031D5D2E013070
:100CC800F702031D682E692E4C2E2608A40025085D
:100CD800A30008000830F3000030F4000A128A115B
:100CE800A1240A128A118316031788018901831621
:100CF800031385010730860080308700880183123E
:100D0800031385018601870188010030B000013096
:100D1800AF008630AE00A030AD000A128A11A926B5
:100D28000A128A110A128A1158250A128A118B1777
:100D38000B170B108B158316031316149614161520
:100D48008113151495141515080028308312031300
:100D58009400831603139101831203132D08F400E2
:100D68002E08F5002F08F6003008F70002300310AF
:100D7800F40DF50DF60DF70DFF3E031DBB2E77089C
:100D8800A3007608A2007508A1007408A00000302E
:100D9800A7007A30A6001230A5000030A4000A127D
:100DA8008A1139240A128A11831203132008FF3E7C
:100DB80083160313930094018715071608008312FE
:100DC8000313A9000A30F3000030F4002908A40036
:100DD800A5012408F5002508F6000A128A11D02377
:100DE8000A128A11730883120313A6000A30F3004B
:100DF8000030F4002908A400A5012408F5002508FE
:100E0800F6000A128A11FD240A128A117308831245
:100E18000313A7002608A40003300310A40DFF3E07
:100E2800031D112F0310240D2704A800280808000B
:100E380007308A000408840A820700340134003429
:100E48000A34003464340034E8340334103427346A
:100E580025342E34323464342F3425342E3432344D
:100E680064342F343234303425342E3432346434FC
:100E7800003425342E34323464343A3425342E3454
:100E8800323464343A3425342E3432346434003401
:100E9800533431343A3400340A128A158B270A1233
:100EA8008A118316031391150A128A158B270A12C1
:100EB8008A11831203131308F500F6017508A000C0
:100EC8007608A1000A128A158B270A128A11730361
:100ED8007404031D702F712F752F8316031391123D
:100EE800782F831603139116111683120313210802
:100EF800F4002008F300080083120313A200A001E5
:100F0800A101992F20082207F6007608840000081E
:100F18000A128A15CC270A128A1101308312031388
:100F2800A0070318A10A0030A10720082207F6002D
:100F38007608840083130008031DA32FA42F862F8F
:100F4800080083120313A0002003031DAC2FAD2F4C
:100F5800B72F77087F3EA10021080A128A11E627D9
:100F68000A128A11C62F02302006031DBC2FBD2F7E
:100F7800C62F7708BF3EA10021080A128A11E6276A
:100F88000A128A11080083120313A3002308F6002B
:100F980004300310F60CFF3E031DCD2F76080F39E1
:100FA800A00023080F39A1000A30F30020080A1214
:100FB8008A15B7270A128A11831203132107A20080
:100FC80022080800F60083120313071076080A1295
:100FD8008A11F4250A128A118312031387140B301D
:100FE800F5006230F400F40BF72FF50BF72F000033
:080FF8008312031387100800A7
:101EBC0064008001840A04060319003404065F2FB1
:101ECC000A128A158B270A128A158316031391148A
:101EDC0008000A128A158B270A128A158316031317
:101EEC00111408000A128A158B270A128A158316F8
:101EFC000313111508000A128A158B270A128A156A
:101F0C00831203132A089300080083160313141971
:101F1C00902F912F8B2F11081F39031D962F972F60
:101F2C008B2F080000300A128A11E6270A128A1534
:101F3C0001300A128A11E6270A128A150800F400E9
:101F4C00F3013A3074020318AC2FAD2FB52F30309B
:101F5C007402031CB22FB32FB52FF301F30A730CC9
:101F6C000800F500F401751CBC2FBD2FC12F7308A0
:101F7C00FF007F08F4070310F30D0310F50C750830
:101F8C00031DC92FCA2FB92F74080800F50083123E
:101F9C000313071475080A128A11F4250A128A15FC
:101FAC008312031387141A30F400F40BDB2F000098
:101FBC0083120313871008000B1CE52FE62FF72F55
:101FCC00831203130618EB2FEC2FF02F0130FF00B8
:101FDC007F08C6078618F32FF42FF62F0130C602A0
:101FEC000B107208FF0071088A00700E8300FE0E41
:041FFC007E0E09004C
:08400000FF3FFF3FFF3FFF3FC0
:04400E00D420FF3F7C
:00000001FF
